:020000040000FA
:10000000381A00205D01000065010000FD27000096
:10001000690100006B0100006D010000000000009C
:10002000000000000000000000000000733F00001E
:1000300071010000000000004D380000E93F0000A1
:1000400077010000770100007701000077010000D0
:1000500077010000770100007701000077010000C0
:1000600077010000770100007701000077010000B0
:1000700077010000770100007701000077010000A0
:100080006D1D00001D1E0000D91E0000791F00001C
:100090003D2000007701000077010000770100009B
:1000A0007701000077010000770100007701000070
:1000B0007701000077010000770100007701000060
:1000C0007701000077010000770100007701000050
:1000D0007701000077010000770100007701000040
:1000E0007701000000000000000000000000000098
:1000F0000000000000000000000000000000000000
:1001000000000000000000000000000000000000EF
:1001100000000000000000000000000000000000DF
:1001200000000000000000000000000000000000CF
:1001300000000000000000000000000000000000BF
:1001400000000000DFF810D000F072FB004800470C
:10015000356D0000AFF30080381A00200648804754
:1001600006480047FEE7FEE7FEE7FEE7FEE7FEE79C
:10017000FEE7FEE7FEE7FEE78542000045010000DE
:10018000202A04DB203A00FA02F100207047914057
:10019000C2F1200320FA03F3194390407047202A4C
:1001A00006DBCB17203A41FA02F043EAE07306E09F
:1001B00041FA02F3D040C2F12002914008431946AF
:1001C000704740EA01039B0703D009E008C9121FEA
:1001D00008C0042AFAD203E011F8013B00F8013B01
:1001E000521EF9D27047D2B201E000F8012B491E2D
:1001F000FBD270470022F6E710B513460A460446C4
:100200001946FFF7F0FF204610BD2DE9FE4F80464E
:1002100081EA0300C00F0C46009021F0004123F05A
:100220000045B8EB0200A94105D240462146904660
:100230001C460B46024623F00040104347D0270DD2
:10024000C7F30A00C3F30A510290401A01904028F4
:100250006BDAC3F3130040F4801B0098924620B180
:100260000023D2EB030A63EB0B0B01985946C0F154
:1002700040025046FFF784FF06460D465046594659
:10028000019AFFF78CFF10EB08006141002487EA18
:10029000115284EAE7731A4340D0009A62B3019A7C
:1002A000012A4FEA075215DC001B61EB02014FF0F7
:1002B000004202EA0752CDE90042001C41F58011DC
:1002C00032462B4600F0FEF903B0BDE8F08F404601
:1002D0002146F9E7001B61EB0201001C41F5801388
:1002E00000185B412018A2F5001747EB030140EA14
:1002F000D570B6196D4111E06D084FEA360645EA32
:10030000C0754FEA0752001B61EB0201001C41F56A
:10031000801149084FEA30000019514132462B46FE
:1003200003B0BDE8F04F00F0BEB9009801224000D4
:100330000023D0EB020263EBE073009821464FEA02
:10034000E074B8EB000061EB0401E9E783F00043DF
:100350005BE781F0004158E72DE9FE4F81EA030495
:1003600004F0004421F0004100944FF0000B23F012
:10037000004350EA01045ED052EA03045BD0C3F3A9
:100380000A54C1F30A552C44A4F2F3340194A0FB9F
:100390000254C1F3130141F48011C3F3130343F476
:1003A000801301FB024400FB034E840A970A44EACF
:1003B000815447EA8357A4FB076802958D0A05FB21
:1003C00007854FEA932C04FB0C542705029D4FEA46
:1003D000065847EA1637B5EB08056EEB070C870E93
:1003E000920E47EA811742EA8312A7FB0201B6EB9D
:1003F0000B0164EB00042B0D43EA0C335E1844EB55
:100400001C50DA465146E7FB0201C5F313044FEADC
:100410000B3343EA14534FEA0432019C43EA0603C8
:10042000A4F10C040294009CCDE900B400F04AF958
:1004300003B0BDE8F08F00200146F9E72DE9F04D4B
:1004400081EA030404F0004B21F0004514464FF00C
:10045000000A23F0004150EA050220D054EA0102CC
:100460001DD0C5F30A570246C5F31303C1F31300A9
:10047000C1F30A5640F4801543F48013A7EB060835
:10048000101BD64608F2FD3873EB050002D308F1C5
:10049000010801E092185B41B8F1000F03DA002077
:1004A0000146BDE8F08D00204FF4801106468446D9
:1004B0000EE0171B73EB050705D3121B63EB050357
:1004C00006434CEA010C49084FEA300092185B41A0
:1004D00050EA0107EDD152EA030012D082EA04008B
:1004E00083EA0501084305D0101BAB4106D2012267
:1004F000002306E000224FF0004302E06FF001020B
:1005000053101AEB06004CEB085110EB0A0041EBBC
:100510000B01BDE8F04D00F0C6B80EB5C10F80EA82
:10052000E0700844CA07002140F233438DE80E0012
:100530000A460B4600F0C6F803B000BD0EB540F207
:10054000334102910021CDE900110A460B4600F02B
:10055000B9F803B000BDC1F30A5210B5C1F31301DD
:1005600040F2FF3341F480119A4201DA002010BDBD
:1005700040F233439A42A2F2334203DC524200F08B
:100580004BF810BD904010BD00F0004230F000402C
:100590000AD0C10D01F56071C0F3160042EA0151A5
:1005A000C208400711437047002001467047000011
:1005B00030B5041E71F1000404DB4FF000444042EA
:1005C00064EB0101141E73F1000405DB1C464FF0BF
:1005D0000043524263EB0403994208BF904230BD8E
:1005E00001F0004330B421F0004150EA010206D08E
:1005F0000A0DA2F56072C1F31301002A02DC30BCBF
:1006000000207047440F44EAC104C100E01830BC28
:1006100000EBC25000F010B8202A04DB203A21FA87
:1006200002F00021704721FA02F3D040C2F120020B
:1006300091400843194670470029A8BF7047401CE5
:10064000490008BF20F00100704710B4B0FA80FCE8
:1006500000FA0CF050EA010404BF10BC704749B125
:10066000CCF1200421FA04F411FA0CF118BF012195
:1006700021430843A3EB0C01CB1D4FEA00614FEA75
:10068000102042BF002010BC704700EBC350104444
:100690000029A4BF10BC7047401C490008BF20F0CF
:1006A000010010BC704710B5141E73F1000408DA85
:1006B000401C41F1000192185B411A4301D120F026
:1006C000010010BD2DE9F04D92469B4611B1B1FAE3
:1006D00081F202E0B0FA80F220329046FFF750FD3E
:1006E00004460F4640EA0A0041EA0B0153465A46C7
:1006F000084313D0114653EA010019D0C8F1400253
:100700005046FFF789FF05460E4650465946424679
:10071000FFF736FD084305D0012004E020463946A6
:10072000BDE8F08D0020054346EAE0762C433743D0
:100730000A986305E40AA0EB08000022FD0A44EAD7
:1007400047540A3002D500200146E9E70105101997
:100750006941DDE9084500196941BDE8F04DA2E7AE
:1007600070B521F0004303430CD0C1F30A550024B7
:10077000D5EB040564EB0403D617AD1AB34102DBD5
:100780000020014670BD201841EB025170BD2DE9DB
:10079000F04D00231A461B1A8A4103DB0020014654
:1007A000BDE8F08DC1F30A52C1F3130141F4801585
:1007B0004FF0000BD10702D100186D41521E0027E7
:1007C000044640F2FF11384601EB620A3E4680467D
:1007D000024600204FF48011FFF71EFFC21971413D
:1007E000BB1846EB0100B4EB030C75EB000C04D313
:1007F000E41A65EB000517460E46241908F10100BE
:100800006D4180463428E3DDF91946EB0600091BEB
:10081000A84103D24FF0FF32134601E000221346F5
:100820001BEB070046EB0A51BDE8F04DFFF73BBF5D
:10083000064C074D06E0E06840F0010394E807002D
:1008400098471034AC42F6D3FFF780FC20740000C8
:100850004074000070B58C1810F8015B15F00703A8
:1008600001D110F8013B2A1106D110F8012B03E049
:1008700010F8016B01F8016B5B1EF9D12B0705D451
:100880000023521E0DD401F8013BFAE710F8013B9A
:10089000CB1A921C03E013F8015B01F8015B521EB6
:1008A000F9D5A142D8D3002070BD0000F0EE400A77
:1008B000FD4890ED001AFD4880ED001AFA4890EDD1
:1008C000021AFB4880ED001AF74890ED011AF9482A
:1008D00080ED001AF8488088A0F2DC5001EE100A82
:1008E000B8EEC11ADFEDF51A21EE211AF44880EDB9
:1008F000001AF44890ED001ADFEDF31AB4EEE11A95
:10090000F1EE10FA0BDBEE4890ED001AB5EEC01ACE
:10091000F1EE10FA03DD9FEDED1A80ED001AE848C4
:1009200090ED001ADFEDEA1AB4EEE11AF1EE10FADA
:100930000CD290ED001ADFEDE71AB4EEE11AF1EEF9
:1009400010FA03DD9FEDE11A80ED001ADC4890ED0E
:10095000001AB5EEC01AF1EE10FA0CDDDE4890ED8B
:10096000031AD748D0ED001A9FEDDC2A01EE821A57
:1009700080ED011A0BE0D84890ED031AD048D0ED75
:10098000001A9FEDD12A01EE821A80ED011A9FED27
:10099000D41A20EE810ACA4890ED011AD0ED021A4D
:1009A00031EE611ACF4880ED001A90ED001AB4EED6
:1009B000C01AF1EE10FA02DD80ED000A0DE0C94820
:1009C00090ED001AF1EE401AB4EEE11AF1EE10FAD1
:1009D00003D2B1EE401A80ED001AB94890ED021A28
:1009E000C048D0ED001A31EE211AB54880ED021A48
:1009F00090ED021AD0ED031A71EE611A90ED031A10
:100A00009FEDB92A02EE211A80ED031AB74840790A
:100A1000012849DBB6480078E8B3A94890ED031AED
:100A2000B44880ED001AA74890ED001AB148D0ED07
:100A3000001A01EEA01AA34880ED001A9C4890ED20
:100A4000001ADFEDA11A31EE211A9E48D0ED001AEE
:100A5000B4EEE11AF1EE10FA0AD2954890ED001AC0
:100A6000DFED991A31EE211A964880ED001A26E042
:100A70008F4890ED001ADFED941A31EE611A91481B
:100A8000D0ED001AB4EEE11AF1EE10FA17DD884845
:100A900090ED001A00E007E0DFED8B1A31EE611AED
:100AA000884880ED001A0AE09FED881A914880ED91
:100AB000001A7F4890ED001A824880ED001A8148A4
:100AC00090ED001ABDEEC11A11EE100A00B28A496B
:100AD0000880774890ED001ABDEEC11A11EE100A99
:100AE00000B286490880774890ED001A7048D0ED32
:100AF000001A31EE611A824880ED001A7D4890EDAF
:100B0000001A7F48D0ED001AB7EE082A02EE211A2B
:100B10006648D0ED001A674890ED002ADFED792A8B
:100B200042EE821A31EE611A774880ED001A90ED9C
:100B3000001AF1EE041A21EE211A744880ED001A11
:100B400090ED001A5B48D0ED001A31EE611A704842
:100B500080ED001A90ED001ADFED6E1A61EE211A99
:100B60006D4890ED001A01EEA01A80ED001A90ED8C
:100B7000001ADFED6A1AB4EEE11AF1EE10FA02DDA6
:100B80009FED661A0DE0644890ED001AB5EEC01AAC
:100B9000F1EE10FA02D29FED4D1A02E05E4890EDA0
:100BA000001A5D4880ED001A584890ED001ADFEDFC
:100BB0005C1A21EE211A5B4880ED001A90ED001AB4
:100BC0005548D0ED001A31EE211A574880ED001A31
:100BD00090ED001ADFED551AB4EEE11AF1EE10FABD
:100BE00002DD9FED521A0DE04F4890ED001AB5EE70
:100BF000C01AF1EE10FA02D29FED341A02E04A4810
:100C000090ED001A484880ED001A90ED001ABCEEF5
:100C1000C11A11EE100A244908824548007800F0F4
:100C2000010070B99FED291A3B4880ED001A204859
:100C300090ED001A234880ED001A00202C4908701E
:100C400080E02A484079012879DB1D4890ED021A9E
:100C5000BDEEC11A11EE100A00B2002872DD124872
:100C600090ED021ADFED331AB4EEE11AF1EE10FA4C
:100C70000CD290ED021ADFED301AB4EEE11AF1EE6B
:100C800010FA03DD01201A4908705BE09FED0F1A8E
:100C9000054880ED021A9FED0D1A80ED011A9FEDB7
:100CA0000B1A80ED001A4DE0D80E0020C000002085
:100CB000C8000020B80000209C0E00206F12833A6C
:100CC000EC0E0020C40000200000164300000000CD
:100CD000CDCCCC3DCDCCCCBDD40F002000004843C2
:100CE0000000FA43B0000020CDCC4C3E3010002074
:100CF000E4000020BC000020D2010020D001002030
:100D0000CC000020CDCC4C3DD0000020B400002011
:100D1000D40000209A99193FD80000200000164402
:100D2000CDCCCC3EDC000020E000002000007A4466
:100D3000A400002000002042000020C2FFE70120A4
:100D40000149087070470000E4000020FEB5044629
:100D50000D460026002004E0215C3144CEB2411C47
:100D6000C8B2691E8142F7DC601910F8010CB0426C
:100D700000D0FEBD2078AA2802D16078AF2800D02C
:100D8000F7E7A078052854D1E078E0283BD16079D6
:100D9000102813D004DC012807D0022810D105E068
:100DA00011280CD0E1280BD101E00AE009E0E0793C
:100DB000A17940EA01202049488202E001E000E0F8
:100DC00000BF00BFE07BA17B40EA0120617B227B6A
:100DD00041EA0221E27AA37A42EA0322CDE9002124
:100DE0000290607A277A40EA0723E079A77940EAFF
:100DF00007226179AF2000F0B9F910480068401C63
:100E00000E49086015E0E078E12812D1A0796179F7
:100E100040EA0123E0790006217A00EB0140617A83
:100E200000EB0120A17A47183946184600F094F8E3
:100E300000BF00BF9DE700001E120020F801002047
:100E400000B50748007848B106480078801DC1B257
:100E50000548FFF77BFF00200149087000BD000036
:100E6000DF010020DE010020321200203549097820
:100E700039B9AA2805D10121324A117032490870C6
:100E80005FE030490978012907D1AF2805D1022157
:100E90002C4A11702C49487053E02A4909780229DC
:100EA00005D10321274A11702749887049E0254957
:100EB0000978032905D10421224A11702249C870FA
:100EC0003FE02049097804290AD105211D4A117003
:100ED0001D4908711D49087000211D4A117030E03C
:100EE00018490978052919D118490978002915DD0B
:100EF00016490978491E154A117015490978144A8E
:100F00001278521C124B1A70491D0F4A50540F4947
:100F10000978B1B906210B4A117012E00949097824
:100F200006290BD10021074A117009490978491D8A
:100F3000054A50540121074A117002E00021014A7C
:100F400011707047F701002032120020F6010020D6
:100F5000DE010020DF01002000B50246642A00DD2A
:100F600000BD044840F8221000F008F80248428210
:100F700000BFF5E75C1000201E120020784890EDBD
:100F8000010AB8EEC00ADFED770A80EE201A764833
:100F900080ED111A724890ED020AB8EEC00ADFED3A
:100FA000710A80EE201A704880ED121A6C4890ED9C
:100FB000030AB8EEC00ADFED6B0A80EE201A6A4819
:100FC00080ED131A664890ED040AB8EEC00ADFED12
:100FD000650A80EE201A644880ED001A604890EDA2
:100FE000050AB8EEC00ADFED5F0A80EE201A5E48FF
:100FF00080ED011A5A4890ED060AB8EEC00ADFEDFE
:10100000590A80EE201A584880ED021A544890ED93
:10101000070AB8EEC00ADFED530A80EE201A5248E4
:1010200080ED221A4E4890ED080AB8EEC00ADFEDB6
:101030004D0A80EE201A4C4880ED231A484890ED66
:10104000090AB8EEC00ADFED470A80EE201A4648CA
:1010500080ED241A424890ED0A0AB8EEC00ADFED8E
:10106000410A80EE201A404880ED441A3C4890ED39
:101070000D0AB8EEC00ADFED3B0A80EE201A3A48AE
:1010800080ED331A364890ED100AB8EEC00ADFED55
:10109000350A80EE201A344880ED551A304890ED1C
:1010A000130AB8EEC00ADFED2F0A80EE201A2E4890
:1010B00080EDAA1A2A4890ED140AB8EEC00ADFEDB6
:1010C000290A80EE201A284880EDAB1A244890EDBA
:1010D000150AB8EEC00ADFED230A80EE201A224876
:1010E00080EDAC1A1E4890ED160AB8EEC00ADFED8E
:1010F0001D0A80EE201A1C4880EDBB1A184890ED9E
:10110000170AB8EEC00ADFED170A80EE201A16485B
:1011100080EDBC1A124890ED180AB8EEC00ADFED57
:10112000110A80EE201A104880EDBD1A0C4890ED8F
:10113000190AB8EEC00ADFED0B0A80EE201A0A4841
:1011400080ED991A064890ED1C0AB8EEC00ADFED52
:10115000050A80EE201A044880ED881A70470000C6
:101160005C10002000007A44E80A00207FB50446A5
:101170000D460022AA261146521C37484654052621
:101180001146521C46541146521C4454E026114646
:10119000521C465400261146521C46541146521CFD
:1011A00045549DF809601146521C46549DF808604C
:1011B0001046511CCAB228490E549DF80D601046C5
:1011C000511CCAB224490E549DF80C601046511CA3
:1011D000CAB221490E549DF821601046511CCAB272
:1011E0001D490E549DF820601146501CC2B21A4889
:1011F00046549DF825601046511CCAB216490E543B
:101200009DF824601046511CCAB213490E549DF833
:1012100029601046511CCAB20F490E549DF828602F
:101220001046511CCAB20C490E54501F08710023BD
:10123000002005E00849095C1944CBB2411CC8B242
:101240009042F7DB1046511CCAB203490B541146B9
:10125000014800F003F87FBDEC110020704700004A
:1012600030B52DED088B8DB004460D46B0EE409A9A
:10127000B6EE000A29EE000AF0EE408AFE4890ED34
:10128000010AD0ED030A20EE200AD0ED000A90ED0D
:10129000021A00EEC10AF0EE000A20EE200A8DEDDF
:1012A0000A0A90ED000AD0ED010A20EE200AD0EDE6
:1012B000020A90ED031A00EE810AF0EE000A20EE19
:1012C000200A8DED0B0A90ED010A20EE000AD0ED08
:1012D000020A90ED021A00EE810AF7EE000AB0EE63
:1012E000001A41EE400ACDED0C0AE448B0F90000C6
:1012F00000EE900AF8EEE00A60EEA00ADF48B0F9CE
:10130000020001EE100AF8EEC11ADC48B0F9020042
:1013100001EE100AB8EEC11A41EE810AD748B0F9C1
:10132000040001EE100AF8EEC11AD448B0F9040026
:1013300001EE100AB8EEC11A41EE810AB0EE600A61
:1013400002F014FCB0EE408AB4F9000000EE100A7E
:10135000B8EEC00A20EE080A8DED070AB4F90200C3
:1013600000EE100AB8EEC00A20EE080A8DED080A59
:10137000B4F9040000EE100AB8EEC00A20EE080A24
:101380008DED090A9DED080ADDED0C0A20EE200A1C
:10139000DDED090A9DED0B1A00EEC10A8DED010A83
:1013A0009DED090ADDED0A0A20EE200ADDED070AAF
:1013B0009DED0C1A00EEC10A8DED020A9DED070AA3
:1013C000DDED0B0A20EE200ADDED080A9DED0A1A7C
:1013D00000EEC10A8DED030AB4F9060000EE100A12
:1013E000B8EEC00AA648D0ED000A20EE200ADDEDD6
:1013F000010AA44890ED001A01EE200A8DED040ABE
:10140000B4F9080000EE100AB8EEC00A9C48D0ED0E
:10141000000A20EE200ADDED020A9A4890ED001A3B
:1014200001EE200A8DED050AB4F90A0000EE100A5B
:10143000B8EEC00A9248D0ED000A20EE200ADDED99
:10144000030A904890ED001A01EE200A8DED060A7D
:10145000894890ED010AB1EE400ADDED040A20EE64
:10146000200AD0ED020A9DED051A00EEC10AD0ED6A
:10147000030A9DED061A00EEC10A20EE280AF0EEDE
:10148000409A90ED000ADDED040A20EE200AD0ED2E
:10149000030A9DED051A00EEC10AD0ED020A9DED8A
:1014A000061A00EE810A20EE280AB0EE40AA90ED5E
:1014B000030ADDED040A20EE200AD0ED000A9DEDBE
:1014C000051A00EE810AD0ED010A9DED061A00EE24
:1014D000C10A20EE280AF0EE40AA90ED020AB1EE11
:1014E000400ADDED040A20EE200AD0ED010A9DED50
:1014F000051A00EE810AD0ED000A9DED061A00EEF5
:10150000810A20EE280AB0EE40BA90ED000A30EED3
:10151000290A80ED000A90ED010A30EE0A0A80EDFA
:10152000010A90ED020A30EE2A0A80ED020A90EDDF
:10153000030A30EE0B0A80ED030AD0ED000A60EEDC
:10154000A00A90ED011AD0ED011A41EE210A90EDAA
:10155000021AD0ED021A41EE210A90ED031AD0EDE5
:10156000031A41EE210AB0EE600A02F0FFFAB0EE73
:10157000408A414890ED000A20EE080A80ED000AFA
:1015800090ED010A20EE080A80ED010A90ED020AB2
:1015900020EE080A80ED020A90ED030A20EE080A08
:1015A00080ED030A90ED000AF0EE000A20EE200A1A
:1015B000D0ED020A20EE200AD0ED010AB0EE001AAA
:1015C00060EE810A90ED031A00EEC10A2E4880ED0C
:1015D000000A294890ED020AF0EE000A20EE200AE7
:1015E000D0ED030A20EE200AD0ED000AB0EE001A7A
:1015F00060EE810A90ED011A00EE810A234880ED29
:10160000000A1D4890ED000A20EE000AD0ED010A04
:1016100090ED011A00EEC10AD0ED020A90ED021A17
:1016200000EEC10AD0ED030A90ED031A00EE810A24
:10163000174880ED000AB4F90000404200EE100A9D
:10164000B8EEC00A1048D0ED000A20EE200AB4F926
:10165000020000EE900AF8EEE00A0C4890ED001A45
:1016600000EE810AB4F9040000EE900AF8EEE00AF8
:10167000074890ED001A0DE06C000020E009002002
:1016800014730000900000207C00002080000020E7
:101690008400002000EE810A134880ED000A90EDDE
:1016A000000ADFED120A30EE600ADFED110A20EECB
:1016B000200A104880ED000A90ED000AD0ED010AE2
:1016C00070EE600A90ED010A9FED0B1A01EE200A00
:1016D00080ED010A90ED010A084880ED010A0DB085
:1016E000BDEC088B30BD0000680000200000004504
:1016F0007D3FF53E88000020CDCCCC3DD80E0020AB
:1017000010B50B4B1B782BB10A4C21800023084CE1
:10171000237004E0074B1B885B1E064C2380054B9F
:101720001B8823B90123024C2370034B1A7510BD8B
:10173000BC010020BE0100200010002010B52DEDDE
:10174000068BC848007810B9BDEC068B10BD1A2274
:10175000C549C648FEF735FDC3480078AA2860D1C0
:10176000C1484078AF285CD10320C1490871BE4808
:101770004079BD49097940EA0120BE490880BA484C
:10178000C079B949897940EA0120BA494880B64808
:10179000407AB549097A40EA0120B6498880B248C2
:1017A000C07AB149897A40EA0120B249C880AE487E
:1017B000407BAD49097B40EA0120AE490881AA4837
:1017C000C07BA949897B40EA0120AA494881A648F3
:1017D000407CA549097C40EA0120A6498881A248AD
:1017E000C07CA149897C40EA0120A249C8819E4869
:1017F000407D9D49097D40EA01209E4908829A4822
:10180000C07D9949897D40EA01209A4948829648DD
:10181000407E9549097E40EA01209649888202F07F
:10182000C7F9924800884AF6AA2188421FD18F48FA
:10183000008B491088421AD103208D4908718B48CA
:1018400000898C4908808948C088488087488088FA
:10185000888086484089C8808448C0890881834838
:101860008089488181484088488202F0A1F98248F5
:1018700000780F287DD1804840787F49897840EAF8
:101880000120C0F30A007D4908807B488078C010A1
:101890007949C97840EA4110C0F30A007749488085
:1018A0007548C07880117449097940EA810072490D
:1018B000497940EA8120C0F30A00704988806E4867
:1018C000407940106C49897940EAC110C0F30A00A0
:1018D0006A49C8806848807900116749C97940EA37
:1018E0000110C0F30A00654908816348C079C0113E
:1018F0006149097A40EA41005F49497A40EA41205A
:10190000C0F30A005D4948815B48407A80105A491B
:10191000897A40EA8110C0F30A0058498881564804
:10192000807A40115449C97A40EAC1005349C881BC
:101930005148007B5049497B40EA0120C0F30A002E
:101940004E4908824C48407BC0104B49897B40EA95
:101950004110C0F30A00494948824748807B801102
:101960004549C97B40EA81004349097C40EA81201E
:1019700000E072E0C0F30A00404988823E48007CE3
:1019800040103D49497C40EAC110C0F30A003B4980
:10199000C8823948407C00113749897C40EA0110EF
:1019A000C0F30A00354908833348807CC0113249AE
:1019B000C97C40EA41003049097D40EA4120C0F33A
:1019C0000A002E4948832C48007D80102A49497D11
:1019D00040EA8110C0F30A00284988832648407DE8
:1019E00040112549897D40EAC1002449C88300246B
:1019F0001CE0224931F81400FEF7A0FD41EC1A0B5F
:101A00009FED1F0B53EC102BFEF7A6FC41EC190BBE
:101A10009FED1D0B53EC102BFEF7F7FB41EC180B61
:101A2000FEF799FD154921F81400641C102CE0DB29
:101A3000124840880F4948801048008808800F48A5
:101A4000C088C8800D48808888800C48008908813B
:101A50000A48C089488102F0ABF832200C4908607E
:101A600000BF71E6E90000207C0E0020B20E0020CD
:101A7000500000209C0E0020340200205C0E00204C
:101A80007F6ABC749318E83F0000000000A88740FC
:101A90009400002010B5044600201BE01849095CA2
:101AA00079B9184931F8101042F2107291420CDAEB
:101AB000144931F8101022781144124A22F81010FB
:101AC00003E000210F4A22F8101000210C4A1154A3
:101AD000411CC8B20228E1DB0A480088B0F57A7FD1
:101AE00004DC08484088B0F57A7F05DD002006490F
:101AF000087000F0F7F802E001200349087010BDFB
:101B000031000020340000206409002070B5044634
:101B10000D460026002004E0215C3144CEB2411C79
:101B2000C8B2691E8142F7DC601910F8010CB0429E
:101B300000D070BDE078512835D1607960B9A079C6
:101B400000F0D0F8E07940B224498871207A40B2A0
:101B5000C871607A487126E06079012823D1A079A4
:101B600000F0C0F8E079000200B2217A08431B4976
:101B70000881607A000200B2A17A084317494881BF
:101B8000E07A000200B2217B084314498881607B1F
:101B9000000200B2A17B08431049C881E07C487173
:101BA00001200F490870E078522814D1607948B9B3
:101BB000E079A17940EA012008490882012008491A
:101BC000487008E06079012805D1E079A17940EA00
:101BD00001200249488200BFABE7000064090020F1
:101BE0003100002010B504463A48007838B9AA2CD4
:101BF00005D10120374908703748047068E035483E
:101C00000078012807D1222C05D102203149087023
:101C1000314844705CE02F480078022805D1032049
:101C20002C4908702C48847052E02A480078032818
:101C300005D10420274908702748C47048E025488A
:101C4000007804280FD10520224908702248047129
:101C5000224804700078282801DD00200870002048
:101C60001F49087034E01B480078052819D11B482B
:101C70000078002815DD19480078401E17490870C3
:101C80001748007816490978491C154A1170401DFB
:101C900011490C5411480078D0B906200D4908703C
:101CA00016E00C48007806280FD10020094908707A
:101CB0000B480078401D08490C5409480078801DE5
:101CC000C1B20548FFF722FF02E000200149087079
:101CD00010BD000039000020AC09002038000020B1
:101CE0003000002000F00101064A5170C0F34002AC
:101CF00004498A70C0F38002CA70C0F3C0020A713E
:101D0000704700006409002001B56846FFF7C2FE75
:101D100008BD00B50246F0EE402AB0EE620A084661
:101D200002F032FD91ED030A82ED050AB0EE620A7F
:101D3000104602F029FD00BD30B50446002505E03F
:101D40004FF47A7000F005F8681C85B2A542F7D30D
:101D500030BD30B5044600F003FD054600BF00F07D
:101D6000FFFC401BA042FAD330BD000070B52848EC
:101D70000068416C2748884704462146254802F000
:101D800010FB04F00100D8B121480068016C214823
:101D9000884705461E480068016C1E4888471E4952
:101DA0004A7B0E3188541C48407B401C0E394873D6
:101DB00001200871002008732846FFF713FF00BFB9
:101DC00004F0020018B3144890F84000F8B9124823
:101DD00090F88D01401C104981F88D01084690F85B
:101DE0008D0191F88E11884207DB01200A4981F8A4
:101DF0004000002081F88D0109E0074A92F88D31FA
:101E000002F28F12D15C044A106802F0CEFA70BD63
:101E100060080002001000405402002070B52B48FA
:101E20000068416C2A48884704462146284802F049
:101E3000B8FA04F0010000B324480068016C24489B
:101E40008847054621480068016C214888470146BB
:101E5000204890F8D12100F5E97081541D4890F890
:101E6000D101401CC1B21B4880F8D111012180F87A
:101E7000C811002180F8D01100BF04F0020020B387
:101E8000144890F8040200BB124890F85103401C1B
:101E9000C1B2104880F8511390F8511390F85203D2
:101EA000814207DB01210B4880F80412002180F8F1
:101EB00051130AE0074A92F8513302F25332D15CCF
:101EC000044AD2F8C40102F070FA70BD6008000242
:101ED000001400405402002010B524480068416CF2
:101EE0002348884704462146214802F05AFA04F064
:101EF000010080B31D480068016C1D4888470146F9
:101F00001C4890F8952300F296308154194890F8B7
:101F10009503401CC1B2174880F89513012180F841
:101F20008C13002180F8941390F896030F2802D0A8
:101F3000104880F895130F4890F8950319280BD195
:101F40000C4890F8951300F2963002F01BFA00212D
:101F5000084880F8951308E0064890F8950319287A
:101F600003DD0021034880F8951310BD60080002CE
:101F7000001800405402002070B52D480068416CE4
:101F80002C488847044621462A4802F00AFA04F001
:101F9000010018B326480068016C264888470546AA
:101FA0002846FEF763FF22480068016C21488847F5
:101FB0000146214890F8592500F25A5081541E4894
:101FC00090F85905401CC1B21B4880F859150121F1
:101FD00080F85015002180F8581500BF04F0020069
:101FE00020B3154890F88C0500BB134890F8D9062B
:101FF000401CC1B2104880F8D91690F8D91690F854
:10200000DA06814207DB01210B4880F88C1500219C
:1020100080F8D9160AE0084A92F8D93602F2DB6253
:10202000D15C054AD2F84C0502F0BFF970BD000042
:1020300060080002001C00405402002070470000AD
:1020400010B52DED028BB0EE408A7948007801285A
:1020500006D00B280DD01F2822D0FF287ED1CEE03D
:102060007448007800F0010010B10B20704908702E
:10207000D1E001F0F7FE00F0B1FD9FED6F0A6F486F
:1020800080ED020A90ED020A6D4880ED000A9FED96
:102090006A0A6C4880ED5B0A1F2065490870BAE047
:1020A000694890ED000A6948B0F9060000EE900A10
:1020B000F8EEE00A664890ED001A10EE810A6248D8
:1020C000D0ED000AB6EE001A41EE000AC0ED000A9B
:1020D00090ED010A5D48B0F9080000EE900AF8EEB4
:1020E000E00A5B4890ED001A10EE810A5648D0EDE8
:1020F000010AB6EE001A41EE000AC0ED010A90EDA9
:10210000020A5248B0F90A0000EE900AF8EEE00A1E
:102110004F4890ED001A10EE810A4B48D0ED020AAC
:10212000B6EE001A41EE000AC0ED020A90ED000A78
:10213000444880ED170A444890ED010A414880ED7B
:10214000060A414890ED020A3E4880ED280A3B48C5
:1021500090ED010A3B4880ED390A00E057E037482E
:1021600090ED000A374880ED4A0A9FED330A80ED72
:102170005B0A324890ED020A3148D0ED000A30EE99
:10218000C00A304880ED5A0A90ED5A0ADFED310A54
:10219000B4EEE00AF1EE10FA08DB90ED5A0ADFED3A
:1021A0002E0A30EE600A80ED5A0A11E0254890EDC3
:1021B0005A0ADFED2A0AB4EEE00AF1EE10FA07D867
:1021C00090ED5A0ADFED240A30EE200A80ED5A0A1B
:1021D000B0EE480A2249A1F1CC00FFF79AFDB0EE1B
:1021E000480A1F4944391748FFF793FDB0EE480AE3
:1021F0001B494431A1F1CC00FFF78BFD0BE001F04E
:1022000031FE00F0EBFC01200949087003E0FF20DB
:102210000749087000BF00BF0648007800F00100C1
:1022200010B9FF2002490870BDEC028B10BD000000
:10223000AC000020A400002000000000DC0A002008
:10224000A8000020E80A0020CC0E0020E0090020B1
:1022500010730000000034430000B443000034C396
:10226000F80B002010B53B483B49C8614430086278
:10227000B7EE080A0846C06980ED000AB7EE080A02
:102280000846006A80ED000AB0EE080A0846006AB7
:1022900080ED070AB0EE080A0846C06980ED070A1B
:1022A0009FED2E0A2E4880EDAA0A9FED2E0A80EDA2
:1022B000AB0A9FED2D0A80EDAC0A9FED280A80ED58
:1022C000BB0A9FED280A80EDBC0A9FED270A80ED2E
:1022D000BD0A9FED260A80ED8D0A9FED250A80ED4F
:1022E0009E0AB3EE040A0846006A80ED0F0ABBEEB0
:1022F000040A0846006A80ED100AB3EE040A084694
:10230000C06980ED0F0ABBEE040A0846C06980ED83
:10231000100A4FF44870C882322008831548C860FC
:10232000154808611548007820F00400134908702A
:102330001348006802214269012090470F48007845
:102340000E4908700E48006810214269012090472C
:1023500010BD0000080D0020001000206666E63E5B
:10236000E80A0020B81E053E4260653C000070424D
:102370000000A042AE07002030100020044C0040B6
:1023800024080002034B53F8202053884B4053800D
:1023900070470000FC01002010B52DED088B0446AD
:1023A000314890ED021A21EE011AD0ED031A90ED9A
:1023B000032A01EE821AF7EE001AB0EE002A42EE6E
:1023C000411AF0EE610A90ED011AF0EE001A21EECA
:1023D000211AD0ED021A21EE211AD0ED001AB0EE2A
:1023E000002A61EE821A90ED032A01EE821AB0EE05
:1023F000410A02F019FF1D48D0ED000A20EE200A24
:1024000084ED020A0068FEF7BFF841EC190B18488A
:102410000068FEF7B9F841EC1B0BB0EE4B0AF0EE8A
:102420006B0A02F051FDB0EE40AAF0EE60AA53EC48
:10243000192B51EC1A0BFDF78FFF41EC180BFEF72F
:10244000CFF860600B48D0ED000A0B4890ED000A11
:1024500002F0EAFE0548D0ED000A20EE200A84EDE5
:10246000000ABDEC088B10BD6C0000200873000052
:102470007C000020840000208000002000B587B090
:10248000062301AA3B21D02000F010FA06230DF10B
:102490000A024321D02000F009FA002059E001216E
:1024A00001EB400101AA515C12F8102041EA02221E
:1024B0002A4931F81010511A09B204AA22F8101052
:1024C00004A931F9101000EE101AB8EEC00A244920
:1024D00001EB8001D1ED000A70EE600A204901EBAA
:1024E000800191ED000A9FED1F1A01EE200A1C49A0
:1024F00001EB800181ED000A194901EB800191EDAA
:10250000000A1749183101EB8001D1ED000A70EE85
:10251000600A1349183101EB800191ED000A9FED2B
:10252000111A01EE200A0E49183101EB800181EDEC
:10253000000A0B49183101EB800191ED000ABDEE54
:10254000C00A10EE101A09B2074A126822F81010D9
:10255000401C0628A3DB07B000BD0000EC090020EA
:10256000080A00209A99993E6000002070B58AB050
:10257000182104A8FDF73EFE002405260020029045
:1025800003900090019073480021C1600161416196
:102590004FF400610182002505E00220FFF7CCFB2B
:1025A000FFF76CFF6D1CB5F5967FF6DB36E06A48E9
:1025B0000068401C684908600220FFF7BDFBFFF778
:1025C0005DFF6448B0F90000B0F5C87F23DA6148C8
:1025D000B0F9000010F5C87F1DDD5E48B0F90200BB
:1025E000B0F5C87F17DA5B48B0F9020010F5C87F74
:1025F00011DD5848B0F90400B0F5C87F0BDA554832
:10260000B0F9040010F5C87F05DD53480068B0F547
:10261000FA6F03DD03E000204F490860C7E700BF01
:1026200069E04C48B0F90600002803DD4948B0F9DC
:10263000060003E04748B0F906004042D8B94548D3
:10264000B0F90800002803DD4248B0F9080003E0B3
:102650004048B0F90800404268B93E48B0F90A0065
:10266000002803DD3B48B0F90A0003E03948B0F91F
:102670000A004042C0B3002415E038480168E01C5D
:1026800031F8100002A931F81410401A00B22DF8E8
:10269000140032480168E01C31F8100002A921F84A
:1026A0001400601C04B2032CE7DBBDF90000002815
:1026B00002DDBDF9000002E0BDF90000404205283E
:1026C00019DABDF90200002802DDBDF9020002E0BE
:1026D000BDF90200404205280DDABDF904000028CA
:1026E00003DDBDF9040003E005E0BDF9040040424C
:1026F000052800DA00E094E700BF002415E0FFF7AA
:10270000BDFE642C0FDB00200BE004A951F8201063
:10271000124A126832F91020114404AA42F820101B
:10272000401C0628F1DB601C04B2B4F5B27FE6DB86
:1027300000240AE004A850F82400001201B2054861
:102740000C3020F81410601C04B2062CF2DB0AB026
:1027500070BD0000E009002064000020600000203F
:1027600010B500BF0D4A11684FF0E02292690C4B82
:102770001B6803EB4304C4EBC313C2EBC302084B57
:102780001B68B2FBF3F201EB4103C3EBC11302EB95
:10279000C300024A12689142E4D110BD2C0000200F
:1027A0002800002010B51148007840F020000F49A3
:1027B000087000F01FFB00F0DFFB01F097FB00F05A
:1027C0001BFE04F0EDFCFFF74DFD04F091FA01F063
:1027D0002BFB04F051FB0648007E28B10548407AE7
:1027E00010B101200449087010BD0000054C0040E4
:1027F000E0090020380A0020E900002070470000AE
:102800000348007820F0010001490870704700007B
:10281000024C00400349097841F00101014A11705E
:1028200070470000024C00407047000003480078E9
:1028300020F001000149087070470000034C00407F
:102840000349097841F00101014A11707047000005
:10285000034C0040704700000348007840F020001F
:102860000149087070470000454C004070B50446AF
:102870000D4600F059F9204600F010F900F060F81C
:10288000284600F00BF900F05BF800F04DF9601CF1
:1028900000F004F900F054F800F088F80646002033
:1028A00000F0B6F800F06EF9F0B270BDF0B5074672
:1028B0000E4614461D4600F037F9384600F0EEF893
:1028C00000F03EF8304600F0E9F800F039F800F08A
:1028D0002BF9781C00F0E2F800F032F811E0012D3D
:1028E00006D100F063F82070002000F091F805E0B8
:1028F00000F05CF82070012000F08AF8641C681E6B
:10290000C5B2002DEBD100F03DF90020F0BD70B54F
:1029100006460C46154600F007F9304600F0BEF8B2
:1029200000F00EF8204600F0B9F800F009F828464B
:1029300000F0B4F800F004F800F024F970BD0000D5
:1029400000B51848007820F0100016490870881E5D
:10295000007840F02000891E08700EE012480078D0
:10296000401C1149087008460078052805DD00F074
:1029700009F900200C49087006E00A48001F007899
:1029800000F010000028E9D100BF0648801E007842
:1029900020F020000349891E0870012004F095F9F9
:1029A00000BD0000454C00401800002010B5002379
:1029B0001648007820F010001449087008241DE023
:1029C0001248801E007840F020001049891E0870CF
:1029D0005806030E881E007800F0100010B143F076
:1029E000010300E000BF0948801E007820F02000AD
:1029F0000649891E0870012004F067F9201EA4F121
:102A00000101CCB2DCD1184610BD0000454C00409D
:102A100000B503462048007840F010001E490870B9
:102A2000881E007820F02000891E0870012004F024
:102A30004CF943B91848801E007840F01000164940
:102A4000891E087007E01448801E007820F01000EE
:102A50001149891E0870012004F037F90E48801EC4
:102A6000007840F020000C49891E0870012004F015
:102A70002CF90948801E007820F020000649891EA4
:102A80000870012004F021F90348007820F01000BC
:102A90000149087000BD0000454C004010B50346D8
:102AA0002048007840F010001E49087008242DE0EE
:102AB00003F0800040B11B48801E007840F01000F9
:102AC0001849891E087007E01648801E007820F01B
:102AD00010001449891E08705B00012004F0F5F80D
:102AE0001048801E007840F020000E49891E0870B2
:102AF000012004F0EAF80B48801E007820F0200046
:102B00000849891E0870012004F0DFF8201EA4F196
:102B10000101CCB2CCD10348007820F0100001496B
:102B2000087010BD454C004000B51548007840F0D5
:102B3000100013490870881E007840F01000891EAC
:102B400008700846007840F020000870012004F06A
:102B5000BCF80B48801E007820F010000849891E40
:102B60000870012004F0B1F80548801E007820F0BC
:102B700020000349891E0870012004F0A6F800BD5A
:102B8000454C004000B51448007840F01000124950
:102B90000870881E007820F02000891E0870084602
:102BA000007820F010000870012004F08EF80A4828
:102BB000801E007840F020000749891E087001201F
:102BC00004F083F80448801E007840F010000249A9
:102BD000891E087000BD0000454C0040B7EE000A99
:102BE000074880ED000A9FED070A80ED010A9FED7E
:102BF000050A80ED020A9FED030A80ED030A704783
:102C00006C0000200000000010B52DED028B4B4839
:102C10000078C0B94A48007840F00200484908707E
:102C20000846007840F0040008700846007840F03C
:102C300001000870481E007840F00100491E08702D
:102C4000BDEC028B10BD3F48007800B9F8E70020CA
:102C50003C490870FEF7F4F83B480068401C3A49CC
:102C60000860084600680321B0FBF1F201FB120086
:102C700028B99FED360AFFF7E3F900F0C7F93248AB
:102C8000007800F0070010B93148FFF785FB2E48A7
:102C900000680B21B0FBF1F201FB120088B90B2098
:102CA000FFF732F82B48406880782A494968C9788C
:102CB00040EA212000EE100AB8EEC00AB0EE408AC9
:102CC00000BF214800680A21B0FBF1F201FB1200AD
:102CD00038B99FED210A01F0EDFC9FED1F0A04F0C9
:102CE00025F9194800681421B0FBF1F201FB12002C
:102CF00088B901F017FE9FED190A01F0F3FF9FED6F
:102D0000170A01F001FF9FED150AFDF7CFFD9FEDBA
:102D1000130A00F0D1FB0C4800683221B0FBF1F23D
:102D200001FB120008B900F093FD00F099FD00F0DE
:102D30006DFE03F07BFC00BF82E70000E90000208D
:102D4000034C0040E8000020FC000020A69B443B10
:102D5000DC0A0020001000200AD7233C0AD7A33C3D
:102D60001E48007800F0010020B901201C49C870FD
:102D7000087104E002201A4908710020C87019483F
:102D8000007D012823D118480068401C16490860BE
:102D900008460068322190FBF1F201FB1200E0B915
:102DA0001248007880F00100104908700846007849
:102DB00030B10F48007840F002000D4908700CE077
:102DC0000B48007820F002000949087005E0084827
:102DD000007820F00200064908707047A400002027
:102DE0005000002000100020580000205C0000204F
:102DF000034C004010B5FFF719FDFFF701FD02205D
:102E00004C4908710120C8704B48007840F001001F
:102E100049490870481C007840F00100491C0870BE
:102E20000846007840F0020008700846007840F03C
:102E30000400087040482030007840F020003E49EF
:102E4000203108703C484030007840F001003A4999
:102E5000403108700846007840F004000870364899
:102E60001E30007840F0200033491E31087032488F
:102E70003E30007840F001002F493E31087008468E
:102E8000007840F0040008702B48801E007820F085
:102E900001002949891E0870481C007820F00100B3
:102EA000491C08700846007840F004000870224869
:102EB0001E30007820F020001F491E310870642069
:102EC000FEF73AFF1C481E30007840F020001A49F7
:102ED0001E3108706420FEF72FFF17483E3000783F
:102EE00020F0040014493E3108706420FEF724FFEE
:102EF00011483E30007840F004000F493E31087020
:102F00006420FEF719FF0C483E30007820F00100E5
:102F100009493E3108706420FEF70EFF06483E3036
:102F2000007840F0010004493E3108706420FEF74B
:102F300003FF10BD50000020044C004010B50D49A7
:102F400009680868804701F07FF801F013F803F082
:102F5000F9FE03F055FB00F00DFA6420FEF7ECFEDD
:102F6000FFF77AFC01F036FA024938390968086837
:102F7000804710BD6408000210B500247521D020E0
:102F8000FFF774FC0446682C03D000201E49087625
:102F900010BDC820FEF7D0FE80226B21D020FFF7A5
:102FA000B6FCC820FEF7C8FE00221921D020FFF78A
:102FB000AEFC0A20FEF7C0FE03226B21D020FFF7F3
:102FC000A6FC0A20FEF7B8FE04221A21D020FFF743
:102FD0009EFC0A20FEF7B0FE18221B21D020FFF72E
:102FE00096FC0A20FEF7A8FE18221C21D020FFF72D
:102FF0008EFC0A20FEF7A0FEFFF7B8FA0120024976
:10300000087600BFC4E70000E009002010B5CE48F4
:10301000007800F0010010B9FF20CC490870CB48BF
:103020000078012806D0022818D01F2838D0FF28A1
:1030300070D172E1C448007800F0010068B1C24864
:10304000007820F00400C04908700846007820F09D
:10305000020008700220BD49087000BFBC4800781B
:1030600040B1B9480078C0F3800018B91F20B749B3
:1030700008700EE0B4480078C0F3800048B1B24850
:10308000007820F00200801CAF4908701F20AF4973
:1030900008706420AF49088048808880C88045E176
:1030A0000024AD4890ED010ADFEDAC0AB4EEE00A71
:1030B000F1EE10FA1AD390ED010ADFEDA90AB4EE91
:1030C000E00AF1EE10FA11DC90ED000ADFEDA30A40
:1030D000B4EEE00AF1EE10FA08D390ED000ADFED4D
:1030E000A00AB4EEE00AF1EE10FA14DD964800787A
:1030F00020F0010094490870FF209449087000F006
:10310000A9FE00F0AFFEFFF769FD924800210160C3
:1031100041600BE109E19348407920B992488088E9
:10312000A0F57A7004B28F484079012804DB8F48FB
:10313000008A04B200F03CFD002C01DC002005E018
:1031400040F25230844200DD00E020468149088090
:10315000002C01DC002005E040F25230844200DD0A
:1031600000E020467B494880002C01DC002005E07F
:1031700040F25230844200DD00E0204675498880EC
:10318000002C01DC002005E040F25230844200DDDA
:1031900000E020466F49C880754890ED140AD0EDD4
:1031A000030A30EE600AD0ED250A70EE200A0846C8
:1031B000B0F9000000EE100AB8EEC00A30EE800A46
:1031C000BDEEC00A10EE100A00B20880684890ED0B
:1031D000140AD0ED030A30EE200AD0ED250A70EE75
:1031E000600A0846B0F9020000EE100AB8EEC00A04
:1031F00030EE800ABDEEC00A10EE100A00B2488020
:103200005B4890ED140AB1EE400AD0ED030A30EEAF
:10321000200AD0ED250A70EE200A0846B0F9040015
:1032200000EE100AB8EEC00A30EE800ABDEEC00A09
:1032300010EE100A00B288804D4890ED140AB1EEED
:10324000400AD0ED030A30EE600AD0ED250A70EE98
:10325000600A0846B0F9060000EE100AB8EEC00A8F
:1032600030EE800ABDEEC00A10EE100A00B2C8802F
:103270000846B0F90000642801DC64200BE0354802
:10328000B0F90000B0F57A7F02DD4FF47A7002E009
:103290003048B0F900002F4908800846B0F9020014
:1032A000642801DC64200BE02A48B0F90200B0F584
:1032B0007A7F02DD4FF47A7002E02648B0F902000E
:1032C000244948800846B0F90400642801DC6420E1
:1032D0000BE02048B0F90400B0F57A7F02DD4FF42E
:1032E0007A7002E01B48B0F904001A498880084649
:1032F000B0F90600642801DC64200BE01548B0F941
:103300000600B0F57A7F02DD4FF47A7002E01148D2
:10331000B0F906000F49C88008E001200B49087089
:103320000C4800210160416000E000BF00BF094C73
:10333000B4F90630B4F90420B4F90210B4F900006D
:1033400001F0C8F910BD0000A4000020AD0000206D
:10335000E40000209C000020DC0A0020000020C2C5
:1033600000002042301000209C0E0020D80E0020CB
:10337000E80A002010B51D4800680122D0218369A9
:1033800002209847194800680122402183690520DE
:1033900098471648343000681549C26A4FF080409B
:1033A00090471248343000681149C26A114890476A
:1033B0000A200F49C8600D4834300068C26A4FF0D7
:1033C0008040904708200A49C860084834300068A7
:1033D000C26A4FF08040904704200549C860034806
:1033E00034300068C26A0348904710BD24080002C8
:1033F0000000002000080040B2EE000A254880EDE1
:10340000330A9FED250A80ED000A9FED230A80ED27
:10341000010A9FED220A80ED020AB2EE040A80ED55
:103420000D0ABAEE040A80ED0E0AB2EE000A80ED33
:10343000440A9FED190A80ED110AB7EE000A80EDEB
:10344000120A9FED170A80ED130AB2EE040A80ED0E
:103450001E0ABAEE040A80ED1F0AB2EE000A80EDE1
:10346000550AB0EE000A80ED220A9FED0E0A80EDAB
:10347000240A9FED0D0A80ED310A9FED0C0A80EDC4
:10348000320A9FED0B0A80ED1E0A9FED0A0A80EDBD
:103490001F0A7047E80A0020CDCC8C3F8FC2753DD3
:1034A0000AD7233D000000000000C8420000C8C247
:1034B00000004842000048C2D148D0ED040AD1487B
:1034C000408840F2DC51081A01EE100AB8EEC11A29
:1034D000DFEDCD1A41EE210ACC48C0ED000AC84804
:1034E000D0ED050AC7480088081A01EE100AB8EEA8
:1034F000C11ADFEDC51A41EE210AC448C0ED010A28
:10350000D0ED000AF5EEC00AF1EE10FA02DDD0EDC2
:10351000000A04E0BD48D0ED000AF1EE600AB1EE09
:10352000041AF4EEC10AF1EE10FA04D2DFEDB80A83
:10353000B648C0ED000AB548D0ED010AF5EEC00A64
:10354000F1EE10FA02DDD0ED010A04E0AF48D0ED53
:10355000010AF1EE600AB1EE041AF4EEC10AF1EECE
:1035600010FA04D2DFEDAA0AA848C0ED010AA94862
:10357000B0F9080000EE900AF8EEE00AA648C0EDA7
:10358000000AA448B0F90A0000EE900AF8EEE00A3A
:10359000A148C0ED010A9F48B0F90C0000EE900A66
:1035A000F8EEE00A9D48C0ED000A9A48B0F90E0016
:1035B00000EE900AF8EEE00A9848C0ED010A934840
:1035C000D0ED000A944890ED001A70EEC10A9448BC
:1035D000C0ED000A8D48D0ED010A8F4890ED011A28
:1035E00070EEC10A8E48C0ED010A8B48D0ED000A8A
:1035F0008C4890ED001A70EEC10AF1EE600A8A481C
:10360000C0ED000A8448D0ED010A864890ED011A09
:1036100070EEC10AF1EE600A8348C0ED010A7B48F2
:10362000D0ED000A7D4890ED001A30EEC11A7F48B7
:10363000D0ED000A41EE000AC0ED000A7348D0ED5B
:10364000010A764890ED011A30EEC11A7748D0EDA4
:10365000010A41EE000AC0ED010AD0ED000A9FED1B
:10366000741AF4EEC10AF1EE10FA02D8DFED700A16
:103670000FE06E48D0ED000A9FED6E1AF4EEC10A1D
:10368000F1EE10FA02DDDFED6B0A02E06748D0EDE3
:10369000000A6648C0ED000AD0ED010A9FED641AE9
:1036A000F4EEC10AF1EE10FA02D8DFED610A0FE084
:1036B0005E48D0ED010A9FED5F1AF4EEC10AF1EE0B
:1036C00010FA02DDDFED5B0A02E05848D0ED010A96
:1036D0005648C0ED010A5048D0ED000A5148C0EDEF
:1036E000000A4D48D0ED010A4E48C0ED010A4C4891
:1036F000D0ED000A9FED501A60EE810A4A4890ED25
:10370000001ADFED431A41EE210A484890ED001AF5
:10371000DFED4A1A41EE210A4948C0ED000A40484F
:10372000D0ED010A9FED441A60EE810A3E4890ED0B
:10373000011ADFED371A41EE210A3C4890ED011ADB
:10374000DFED3E1A41EE210A3D48C0ED010AD0ED01
:10375000000ABBEE041AF4EEC10AF1EE10FA02D828
:10376000FBEE040A0FE03648D0ED000AB3EE041A6F
:10377000F4EEC10AF1EE10FA02DDF3EE040A02E003
:103780002F48D0ED000A2E48C0ED000AD0ED010A06
:10379000BBEE041AF4EEC10AF1EE10FA02D8FBEE09
:1037A000040A0FE02648D0ED010AB3EE041AF4EE45
:1037B000C10AF1EE10FA02DDF3EE040A02E020483D
:1037C000D0ED010A1E48C0ED010AD0ED000A1D48E7
:1037D000C0ED000A1A48D0ED010AF1EE600A19485E
:1037E000C0ED010A1848007840B9DFED090A0F481A
:1037F000C0ED000ADFED060AC0ED010A70470000C7
:10380000D40F00209C0E00209A99993E4C01002074
:103810000000000064090020540100206C01002019
:10382000740100205C010020640100207C01002064
:103830000000C8C20000C8429A99193E8FC2F53DE7
:10384000840100208C010020E4000020704700006B
:1038500002480068401C014908607047D8010020F8
:1038600010B568480088401C664908800846007901
:1038700080B1012811D0022813D0032814D10846A2
:103880000088642190FBF1F201FB120008B9FEF7F9
:10389000E1FF0AE0FEF7DEFF07E06420FEF7D0FF5D
:1038A00003E0FEF7C3FF00E000BF00BF5548C0784B
:1038B00030B1012813D0022814D0032815D103E019
:1038C0006420FEF7A7FF11E04E480088642190FBBA
:1038D000F1F201FB120008B9FEF7A6FF06E0FEF7C1
:1038E0008FFF03E0FEF7A0FF00E000BF00BF4548E8
:1038F000C07908B3012804D0022816D0032820D1AB
:1039000006E04148007820F004003F49087019E0C3
:103910003C480088642190FBF1F201FB120018B9C9
:1039200004210520FEF72EFD0CE03748007840F01A
:1039300004003549087005E004210520FEF722FD4A
:1039400000E000BF00BF2F48407928B3012804D011
:10395000022818D0032824D108E02B48203800780A
:1039600020F020002849203908701BE025480088F5
:10397000642190FBF1F201FB120018B92021032011
:10398000FEF700FD0EE020482038007840F02000CF
:103990001D492039087005E020210320FEF7F2FCC4
:1039A00000E000BF00BF1748807908B3012804D0A9
:1039B000022816D0032820D106E01348007820F012
:1039C00001001149087019E00E480088642190FB3D
:1039D000F1F201FB120018B901210520FEF7D2FC1B
:1039E0000CE00948007840F001000749087005E044
:1039F00001210520FEF7C6FC00E000BF00BFFFF775
:103A0000AFF910BD50000020424C004070B50024BA
:103A1000A5E0C4EB0410C0EBC410534901EB8000D7
:103A20000079002859D0C4EB0410C0EBC41001EB9E
:103A30008000007B401CC4EB0411C1EBC4114A4A56
:103A400002EB81010873C4EB0410C0EBC4101146F3
:103A500001EB8000007B05283FDDC4EB0410C0EBC8
:103A6000C41001EB8000407B322807DD3220C4EB1C
:103A70000411C1EBC41102EB81014873C4EB0413C0
:103A8000C3EBC413384D05EB8303597BC4EB04131C
:103A9000C3EBC41305EB830303F10E00C4EB041363
:103AA000C3EBC41305EB83039A6890470020C4EB73
:103AB0000411C1EBC4112A4602EB81010873C4EB67
:103AC0000411C1EBC41102EB81010871C4EB0411B4
:103AD000C1EBC41102EB81014873C4EB0410C0EBCD
:103AE000C410214901EB800090F84000B0B3C4EB52
:103AF0000413C3EBC4130D4605EB830303F5C77230
:103B0000C4EB0413C3EBC41305EB830303F28F115F
:103B1000C4EB0413C3EBC41305EB830303F14100AF
:103B200003F0A8F8D0B10020C4EB0411C1EBC4111C
:103B30002A4602EB810181F84000C4EB0412C2EB7B
:103B4000C4122B4603EB820292F88F11C4EB0412CD
:103B5000C2EBC41253F8220000F027FC641C042CB2
:103B6000FFF657AF70BD000054020020F0EE400A8F
:103B7000B7EE082AF0EE421AB6EE002A20EE822AAC
:103B8000B0EE421AB0EE600A10EE100A0749A1EB3F
:103B9000600000EE100A61EE002AB7EE082A02EE7D
:103BA000C02A22EE002AB0EE420A7047DF59375F82
:103BB00010B52DED028B9FED500AB0EE408A4F48B4
:103BC000007980B14E48407901280CDB4D4890EDDA
:103BD000000A4D4880ED380A4A4890ED010A4A48EB
:103BE00080ED490A1EE04948408840F2DC51081A3D
:103BF00000EE100AB8EEC00ADFED3F0A20EE200A00
:103C0000414880ED380A41480088A0F2DC5000EEBF
:103C1000100AB8EEC00ADFED380A20EE200A3A4852
:103C200080ED490A3A48007800F00100B8B33748FF
:103C3000808840F21451884245DD3448C08840F203
:103C4000A461884209DD334890ED000ADFED320AB5
:103C500030EE600A80ED000A0EE02C48C08840F289
:103C60001451884208DA2B4890ED000ADFED2A0A49
:103C700030EE200A80ED000A234890ED5A0ADFED6D
:103C8000270AB4EEE00AF1EE10FA09DB214890EDC4
:103C9000000ADFED230A30EE600A80ED000A12E030
:103CA000194890ED5A0ADFED1F0AB4EEE00AF1EE72
:103CB00010FA08D2174890ED000ADFED190A30EE2D
:103CC000200A80ED000A11480089B0F5966F03DAEA
:103CD00000200B49487109E00C480089B0F5AF6F2E
:103CE00003DA01200649487100E000BF00F01CF82B
:103CF000BDEC028B10BD00000AD7233D64090020F3
:103D0000301000208C010020E80A00209C0E0020CA
:103D1000A4000020A8000020CDCCCC3D00003443FE
:103D20000000B443000034C310B53B4800780128BC
:103D300002D0022851D12CE03848808840F24C4112
:103D400088420BDA3548C08840F26C71884205DD44
:103D500033480078401C3249087002E000203049A6
:103D600008702F480078642812DD00202C49087064
:103D70000220294908702B48007820F00100401CDF
:103D80002849087000F06EF8FEF728FF00F08AFF5F
:103D900023E02248808840F24C41884209DA1F48DB
:103DA000C088884205DA1E480078401C1C4908700B
:103DB00002E000201A4908701948007864280BDDD9
:103DC0000020174908700120134908701548007831
:103DD00020F001001349087000BF00BF0F48408960
:103DE00040F24C41884215DB0C48408940F2DC51DE
:103DF00088420FDD00200A4908700120064908703A
:103E000000F030F8FEF7EAFE0648007820F00100E6
:103E10000449087010BD0000980000209C0E00208E
:103E200099000020A4000020002005E040F2DC51B1
:103E3000064A22F81010401C0828F7DB4FF47A706D
:103E40000249488103200249487170479C0E0020B6
:103E500030100020024890ED0C0A80ED0B0A7047EC
:103E6000900A0020002021E09FED140A00EB0011D1
:103E7000134A02EB810181ED0C0A9FED100A00EB61
:103E8000001102EB810181ED0B0A9FED0C0A00EBA2
:103E9000001102EB810181ED030A9FED080A00EB9E
:103EA000001102EB810181ED0A0A401C0D28DBDBC9
:103EB0009FED040A024880ED7C0A70470000000074
:103EC000E80A00200000A04238B50024002000903D
:103ED00001236A460D21EC20FEF7E8FC9DF8000066
:103EE000102800D10124204638BD000010B5002064
:103EF0001A4948720872AFF20B000860184848600F
:103F000018A116480A3000F0A1FFFFF7DDFF1349A2
:103F100008720846007AB0B1012048721020087774
:103F2000084602F0B5FB402280210C4802F026FD35
:103F3000082320228021094802F0DFFD0722032107
:103F4000064802F0D0FD00F0EDFC084890ED0C0AA8
:103F500080ED0B0A0148407A10BD0000380A0020AD
:103F6000713F000053504C3036000000900A002092
:103F70007047704730B5174800681749B0FBF1F03B
:103F800016490860134800684FF47A72B0FBF2F1EA
:103F9000481EB0F1807F00D31BE0481E4FF0E022A6
:103FA000506150170722002804DB53071C0E0C4BEE
:103FB0001C5406E053071D0E0A4B00F00F04241F8B
:103FC0001D5500BF00204FF0E022906107201061D6
:103FD00000BF30BD2C02002040420F00280000200E
:103FE00000E400E018ED00E010B511480068401C46
:103FF0000F49086001200F49087002F0DBFE0E48EF
:10400000007898B10A4800680321B0FBF1F201FB87
:10401000120058B9FEF732FA9FED080A084909481C
:10402000FDF71EF99FED050A00F052FD10BD0000DE
:104030002C000020E8000020E9000020A69B443B63
:10404000DC0A0020E0090020F0B5824E3668C6F395
:1040500002450126AE40F0B27E4E366806F00704F7
:10406000062C39D2DFE804F003394051B7BD7A4E4F
:1040700036785EB346F65A16764F083F3E60754E68
:104080004836366846F00106724F48373E600126D2
:10409000704F083F3E60704E367886B16F4E36786E
:1040A00036B14FF4FA3696FBF0F66D4F3E6013E0F2
:1040B0004FF4FA4696FBF0F6694F3E600CE04FF481
:1040C000004696FBF0F6664F3E6005E04FF4004672
:1040D00096FBF0F6624F3E60B9E042F2107696FB36
:1040E000F0F65F4F3E60B2E05C4E367836B14FF48A
:1040F000FA3696FBF0F65A4F3E6005E04FF4FA466A
:1041000096FBF0F6564F3E60A1E0524E361F3668E1
:10411000C6F309024F4E361F366806F4E026B6F5A0
:10412000403F15D007DC6EB1B6F5803F0CD0B6F538
:10413000003F13D10AE0B6F5802F0BD0B6F5A02FC3
:104140000CD109E0474909E0474907E0474905E044
:10415000474903E0474901E0474900BF00BF12B9A2
:104160003F4E316036E002F4805616B142F470469C
:1041700032B2424E367826B1414E96ED210AF36EA8
:1041800003E03F4E96ED190AF36C00EE902AF8EE2C
:10419000E00A20EE201AC3F5407600EE906AF8EEB1
:1041A000E01AF7EE000A40EE210AF2EE001A60EE85
:1041B000A11AC1EE210AB7EE001A31EE601A00EE24
:1041C000901AF8EE600AC0EE811AFCEEE10A244E65
:1041D000C6ED000A3BE0274E96FBF0F6204F3E600E
:1041E00035E01D4E361D36785EB346F65A16194F29
:1041F000083F3E60174E4836366846F00206154FB7
:1042000048373E600126134F083F3E60124E361D70
:10421000367886B1114E367836B14FF4FA3696FBC1
:10422000F0F60F4F3E6011E04FF4FA4696FBF0F6C1
:104230000B4F3E600AE0104E96FBF0F6084F3E60D2
:1042400004E00D4E96FBF0F6054F3E6000BF00BF48
:10425000F0BD000008040140008920423C86204255
:104260002C02002060E31600C0C62D00808D5B008C
:10427000001BB70000366E01006CDC02D8802042C3
:10428000001020002E48006840F470002C4908609F
:104290004FF4B5402B49088080202B49486100BF6E
:1042A0002A48406800F480700028F9D1284827493E
:1042B000086000BF2548406800F480700028F9D1EC
:1042C00000BF2248406800F480700028F9D12048DF
:1042D000001D1E49086000BF1C48406800F4807043
:1042E0000028F9D11B48006920F4704040F40050C8
:1042F000184908610846406920F4704040F40050B5
:10430000486146F65A10144908604FF4A020091D70
:104310000860081D006820F00710C01C091D086017
:1043200000200D4908600B48006940F03000094941
:1043300008610846406940F030004861704700005D
:1043400088ED00E00C480040003004E0000001402F
:1043500001005A69001001400004014030B50124F9
:10436000C4EB5104E3B200F1120424F8132030BD71
:1043700070B504460D4629462046FCF7E7FC70BDA3
:104380007047000070B504460D462A462146034892
:10439000FBF717FFFDF7D2F970BD000034020020D3
:1043A0007047828B8A438283704700F11A024FF074
:1043B000844303EB421212794AB900BF00F11C0298
:1043C0004FF0844303EB42121279002AF6D0C181E8
:1043D0007047000000B5A5B0242270491CA8FBF767
:1043E000F0FE24226D49243113A8FBF7EAFE2422B3
:1043F0006A4948310AA8FBF7E4FE242267496C3178
:1044000001A8FBF7DEFE6648006801220C21C369A3
:104410000320984762483C3000681CA90268614844
:1044200090475F483C30006881685E4888475C4838
:104430003C3000680121026B5A48904758483C3094
:1044400000680221026B57489047554800680122D6
:104450000C21C3691046984751483C30006813A9A5
:104460000268514890474E483C30006881684E4889
:1044700088474B483C3000680121026B4A4890470E
:1044800047483C3000680221026B47489047444847
:1044900000680122C021C3690920984740483C3088
:1044A000006801A90268414890473D483C300068D7
:1044B00081683E4888473A483C3000680121026BD9
:1044C0003A48904736483C3000680221026B374832
:1044D00090473348006801220C21C36902209847A5
:1044E0002F483C3000680AA90268314890472C48A0
:1044F0003C30006881682E48884729483C30006875
:104500000121026B2A48904725483C30006802216F
:10451000026B2748904722480830006881692020B4
:1045200088471F48083000688169212088471C4857
:1045300008300068816922208847194808300068DF
:104540008169232088471B481B4988601B491A48FA
:10455000C0F8CC111A49C0F890131A49C0F8541584
:104560001648194908600120134981F840000121CB
:10457000114880F8041280F8C81380F88C150A4896
:104580000D4908600A48C1F8C4010648C1F888030B
:104590000648C1F84C0525B000BD00005C72000063
:1045A000240800020018004000100040001C0040D9
:1045B00000140040714300005402002081430000B9
:1045C00085430000A14300002400002010B52DED1C
:1045D000028BB0EE408A1848007D0E2814D005DC0E
:1045E00048B1022808D0032821D10AE0282810D099
:1045F00029281CD112E01BE09FED100A02F080FC7C
:1046000016E002F09FFD13E0B2EE0E0A02F0A8FDE4
:104610000EE002F065FC02F095FD09E00848406AF2
:10462000007820F001000649496A087000E000BFE8
:1046300000BFBDEC028B10BD001000200000A042A6
:10464000301000201448007800F002001349087070
:104650001148007800F01000114908700F480078E8
:1046600010B901200F4908700D48007810B90120D9
:104670000D4908700C48007818B90A48007800B94C
:1046800070470A48007828B10020084908700120C6
:104690000749087500BFF3E7004C0040C001002047
:1046A000C1010020A0010020A1010020C2010020C2
:1046B0000010002010B52DED028BB0EE408AFFF700
:1046C000C1FF00F0B7F9B0EE480AFFF77FFFBDEC7D
:1046D000028B10BD2DE9F04104460D4617461E46DB
:1046E000002C01DC002006E0B4F57A7F02DB40F20A
:1046F000E73000E020460446002D01DC002006E003
:10470000B5F57A7F02DB40F2E73000E02846054647
:10471000002F01DC002006E0B7F57A7F02DB40F2D3
:10472000E73000E038460746002E01DC002006E0B6
:10473000B6F57A7F02DB40F2E73000E0304606460D
:1047400004F57A7004B205F57A7005B207F57A704F
:1047500007B206F57A7006B22A4604210807FFF769
:10476000FDFD324604210748FFF7F8FD22460821E7
:10477000C806FFF7F3FD3A460A214807FFF7EEFDAA
:10478000BDE8F0810008004090ED051AD0ED061A52
:1047900031EE611AD0ED0A1A31EE211A80ED041AB9
:1047A00090ED041AD0ED071AB4EEE11AF1EE10FA0A
:1047B0000ED290ED041AD0ED071AF1EE611AB4EEA4
:1047C000E11AF1EE10FA03DD9FED551A80ED041A9F
:1047D00090ED081AB5EEC01AF1EE10FA22D090ED65
:1047E000091AB5EEC01AF1EE10FA1BD090ED041ABA
:1047F000D0ED091AB4EEE11AF1EE10FA02D890EDFC
:10480000091A0DE090ED041AD0ED081AB4EEE11A81
:10481000F1EE10FA02DD90ED081A01E090ED041AB5
:1048200080ED041A90ED0C1AD0ED041A01EE801AF6
:1048300080ED0C1A90ED0D1AB5EEC01AF1EE10FADB
:1048400022D090ED0E1AB5EEC01AF1EE10FA1BD080
:1048500090ED0C1AD0ED0E1AB4EEE11AF1EE10FA4A
:1048600002D890ED0E1A0DE090ED0C1AD0ED0D1A55
:10487000B4EEE11AF1EE10FA02DD90ED0D1A01E04E
:1048800090ED0C1A80ED0C1A90ED061AD0ED0B1A73
:1048900031EE611AB1EE411AC1EE000A90ED001A34
:1048A000D0ED041A21EE211AD0ED011A90ED0C2A58
:1048B00001EE821AD0ED021A01EEA01A80ED031A61
:1048C00090ED0F1AB5EEC01AF1EE10FA22D090ED6D
:1048D000101AB5EEC01AF1EE10FA1BD090ED031AC3
:1048E000D0ED101AB4EEE11AF1EE10FA02D890ED04
:1048F000101A0DE090ED031AD0ED0F1AB4EEE11A84
:10490000F1EE10FA02DD90ED0F1A01E090ED031ABE
:1049100080ED031A90ED061A80ED0B1A7047000027
:104920000000000010B52DED108B86B09FED320B0E
:10493000B0EE40FAF0EE60FA9FED310B8DED040B16
:104940009FED310B8DED020B9FED310B8DED000BCB
:104950009FED310BB0EE408AF0EE608A304801F0F6
:104960008BFFDFED300A80EE201A11EE104A204650
:10497000FBF70AFE41EC190B53EC182B51EC190B09
:10498000FBF75CFD41EC1E0B9FED271BB0EE4E0AC2
:10499000F0EE6E0A00F048FEB0EE40DAF0EE60DABB
:1049A0009FED150B53EC102B51EC1D0BFBF7D4FCBA
:1049B00041EC1C0B9FED100B53EC102BFBF7C6FCCE
:1049C00041EC1B0B9FED0E0B53EC102BFBF736FD50
:1049D00041EC1A0BFBF704FE15490863084690EDFD
:1049E0000C0AD0ED0B0A30EE600A80ED0D0A06B01D
:1049F000BDEC108B10BD00006666666666027240F4
:104A000039B4C876BE9F7ABF05A3923A019D234070
:104A1000CDCCCCCCCCF07140CDCCCCCCCC5459400E
:104A2000380A002000007A44739B82A07A5AC83F5B
:104A3000900A002000B52448007D032823D005DC1F
:104A400058B101280AD002283BD115E00E2821D008
:104A5000282826D0292834D12FE033E01A48C08AEC
:104A6000401E00B21849C8820846B0F91600002856
:104A700001DC0220087525E003224FF4FA710A20B8
:104A8000FCF73EFE1EE00E224FF496710A20FCF762
:104A900037FE17E028224FF4FA710A20FCF730FEA7
:104AA00010E00A4801680068401E084A10600029AA
:104AB00002DA29200449087504E00020024908753B
:104AC00000E000BF00BF00BD00100020AC010020CE
:104AD0000A4890ED011A0A48D0ED000A41EE000A9A
:104AE000C0ED000A0748D0ED000A054890ED001A15
:104AF00041EE000A0348C0ED000A7047D80E0020BE
:104B0000240100202801002000B5F0EE400A56489C
:104B100090ED000A9FED551AB4EEC10AF1EE10FABD
:104B200002DD9FED520A0FE04F4890ED000A9FED25
:104B3000501AB4EEC10AF1EE10FA02D29FED4C0AFF
:104B400002E0494890ED000A474880ED000A4948D4
:104B500090ED000A444890ED001A01EE200A454805
:104B600080ED000A444890ED000A424890ED001A9A
:104B70004248D0ED001A31EE611A20EE010A404899
:104B800080ED000A3C4890ED010A374890ED001A8C
:104B90003C48D0ED001A31EE611A20EE010A3A4885
:104BA00080ED000A344890ED020A374890ED001A73
:104BB00020EE011A354890ED000A01EE200A80ED42
:104BC000000A90ED000A9FED321AB4EEC10AF1EE30
:104BD00010FA02DD9FED2E0A0FE02C4890ED000A3E
:104BE0009FED2C1AB4EEC10AF1EE10FA02D29FED3D
:104BF000290A02E0254890ED000A244880ED000AC9
:104C00001E4890ED000A1E4890ED001A01EE200AA1
:104C10001A4880ED000A1D4890ED000A1A4890EDF0
:104C2000001A30EE011A174890ED000A01EE200A32
:104C300080ED000A90ED000A174880ED000A0F4849
:104C400090ED000A144880ED020A1448007820B163
:104C50001348007800F0010020B900F023F801208B
:104C60000E49087000BD00001C0100200000FA433E
:104C70000000FAC320010020FC0E002028010020C3
:104C800030010020240100202C01002034010020EC
:104C900000004842000048C2D80E00200001002059
:104CA000A40000209FED0A0A0A4880ED000A9FED4B
:104CB000080A094880ED000A9FED050A074880EDC3
:104CC000000A9FED030A064880ED000A70470000C5
:104CD00000000000200100201C010020280100200D
:104CE000240100204948D0ED0C0A9FED491A60EEDE
:104CF000810AFDEEE00A4748C0ED000A4648007808
:104D000048B145480078401E434908704148006852
:104D10004249086006E03F48006840490968401A77
:104D20003F4908603F48008AB0F5967F0DDA3D485C
:104D3000008A3B4948603B48008A00EE900AF8EE42
:104D4000600A3948C0ED000A07E03748D0ED000A94
:104D5000FDEEE00A3248C0ED010A314800683349EF
:104D60000968401A00EE900AF8EEE00A80EE801A18
:104D7000FDEEC10A2E48C0ED000A294840682B49C3
:104D80004968401A00EE900AF8EEE00A80EE801AB8
:104D9000FDEEC10A2648C0ED010A214800682349FA
:104DA00008601F48406848601E484078C0B12148EC
:104DB0000078A8B91E48D0ED010AF8EEE00A1E48B6
:104DC000C0ED000ADFED1D0A1D48C0ED000AF6EE39
:104DD000000AC0ED010ADFED1B0AC0ED020A14E073
:104DE0001348D0ED000AF8EEE00A1348C0ED000ABF
:104DF000DFED150A1248C0ED000AF6EE000AC0ED1C
:104E0000010ADFED100AC0ED020A7047900A002087
:104E10000000C842140100203801002018010020C1
:104E20000C01002064090020480100203C01002002
:104E300004010020440100201C010020CDCCCC3F07
:104E4000FC0E0020CDCC4C3ECDCC4C3F0FB40846E0
:104E500010B5064A02A901F0BDFB044602A90020D4
:104E600001F0C9FB204610BC5DF814FBF76500009B
:104E700003B401984100009850EAC12018BF0420F3
:104E80004A0D18BF40F0010040F2FF72B2EB515FD3
:104E900008BF40F00200012808BF052002B070479B
:104EA0004100080218BF04200A0E18BF40F001009C
:104EB0004FF07F4232EA010108BF40F002000128B2
:104EC00008BF05207047000070B5C1482DED020BEA
:104ED0002DED0E8B82B0119D25F000449FEDBEDBC1
:104EE0009FEDBFEB84423EDBA4F140511098A1F14D
:104EF0007F6108430FD0BC48844202DC28D110985F
:104F000030B39DED100B02B0BDEC0E8B02B0BDE8CE
:104F1000704001F045BA9DED100B53EC1D2B51EC88
:104F2000100BFBF719FA9DED100B41EC180B53EC2D
:104F30001E2B51EC100BFBF70FFA53EC182BFBF761
:104F400064F941EC100B02B0BDEC0E8B02B070BDE9
:104F5000012001F039FB02B0BDEC0E8B02B0BDE8C0
:104F6000704001F031BAA1489FEDA18B844256DA1E
:104F70009DED100BB4F1795F0ADA51EC100BFFF7DD
:104F800077FF042808BF01F03FFA9DED100BDAE728
:104F900053EC102B51EC100BFBF7DEF941EC190B25
:104FA00095480621B0EE490AF0EE690A784401F00E
:104FB00063F953EC192B51EC100BFBF7CDF941ECD5
:104FC0001A0B8E48B0EE490AF0EE690A04217844C3
:104FD00001F052F953EC192B51EC100BFBF7BCF913
:104FE00053EC182BFBF711F941EC100B51EC1A0B99
:104FF00053EC102BFBF722FACDE900019DED000BDD
:1050000053EC102B9DED100B51EC100BFBF7A4F99A
:105010009DED101B53EC112BFBF7F7F8D2E09DED43
:10502000100B51EC100B01F057FE53EC182BFBF753
:1050300090F99FED730BCDE9000153EC102B9DED22
:10504000000B51EC100BFBF787F941EC190B6E4884
:105050000621B0EE490AF0EE690A784401F00CF935
:1050600053EC192B51EC100BFBF776F941EC1B0BB1
:105070006648B0EE490AF0EE690A0421784401F06E
:10508000FBF853EC192B51EC100BFBF765F953ECC3
:10509000182BFBF7BAF841EC1C0B51EC190B02F082
:1050A000A5F841EC180B5A489FED5BABA04222DCFF
:1050B00053EC1C2B51EC1B0BFBF7C0F9CDE90001A5
:1050C0009DED000B51EC180B53EC102BFBF744F942
:1050D00053EC182BFBF799F853EC1A2BFBF73CF920
:1050E00053EC1D2BFBF732F953EC1E2BFBF731F978
:1050F00041EC100B5FE08DED008B002000909DEDEA
:10510000000B51EC180B53EC102BFBF77EF89DEDC8
:10511000000B41EC1E0B53EC102B51EC100BFBF76A
:105120001BF953EC192BFBF714F953EC1E2BFBF76F
:1051300085F941EC190B53EC1C2B51EC1B0BFBF7C5
:105140007DF941EC1B0B53EC1A2B51EC190BFBF7BF
:1051500003F953EC1D2BFBF7FCF841EC190B53EC56
:105160001A2B51EC180BFBF7F7F853EC1B2BFBF742
:10517000F3F853EC192BFBF7E9F89DED000B41EC2C
:10518000180B53EC1A2B51EC100BFBF7E5F89FEDC5
:10519000249B53EC192BFBF7DCF841EC100B51EC82
:1051A000180B53EC102BFBF7D1F853EC192BFBF732
:1051B000D0F841EC100B002D3FF7C5AE51EC100BB1
:1051C00081F0004141EC100BBDE600000000000042
:1051D0000000F03F00000000075C143326A6913C5D
:1051E000182D4454FB21F93F0000F07F0000E03F00
:1051F000000000000000F03F702300007E2300004C
:10520000000000000000E03FC2220000D0220000A9
:105210003333EF3F000000000000000000000040BA
:10522000182D4454FB21E93F70B54FF068422DED35
:10523000048BF0EE408A18EE900AB0EE608A18EE09
:10524000101A02EB4003B3F1654F3CBF02EB410281
:10525000B2F1654F7DD200BFC0F3C753C1F3C7524F
:105260009A1A1B2A09DD10F0004F14BF9FED830A24
:105270009FED830ABDEC048B70BD12F11A0F36DA74
:1052800011F0004F09D010F0004F0CBF9FED7D0AC8
:105290009FED7D0ABDEC048B70BD88EE889A19EEF7
:1052A000100AFFF7FDFD042808BF01F0CBF818EE47
:1052B000900AFFF7F5FD054618EE100AFFF7F0FD1E
:1052C000044619EE100AFFF7EBFD042D18BF052D5B
:1052D00008D1042C18BF052C04D1002804BF0220DB
:1052E00001F072F9B0EE490ABDEC048B70BD4200CA
:1052F000B2EB410F3AD910F0004F19BFDFED630A4E
:105300009FED630ADFED630A9FED630AB0EE481A72
:105310000A46B1EE688A80F00041F0EE418A1046FC
:105320000A1A5200B2F1807F34D2484010F0004F88
:10533000DFED5A1A9FED5A2A1DBFBEEE001A70EE1D
:10534000E10A30EE420AB6EE001A08BF70EEA10A7A
:1053500000E040E008BF30EE020AB0EE682A01EE3D
:10536000482A08EE818AC2EE081A15E011F0004FB3
:1053700004BF9FED4C0AF0EE400AD1D010F0004F70
:1053800019BFDFED490A9FED490ADFED490A9FED9C
:10539000490AC5E7C8EE881A21EEA11A9FED462AF0
:1053A000DFED462A41EE022A9FED452A01EE222A30
:1053B000DFED442A41EE022A9FED432ABDEC048B27
:1053C00001EE222A21EE811A01EE020A30EE210AB4
:1053D00030EE200A70BD4FF07F42B2EB400F28BF85
:1053E000B2EB410F09D2F0EE480AB0EE680ABDEC0C
:1053F000048BBDE8704001F01AB840EA01035B007D
:1054000008BF41F0FF410BD0B2EB400F08BFB2EB39
:10541000410F08D120F0804008EE900A21F0804131
:1054200008EE101A18E7B2EB400F12BF5FEA410313
:1054300040F0FF4001F000413FF40EAFB2EB410FEE
:1054400012BF5FEA400200F0004041F0FF413FF42C
:1054500003AF4A0092EA40033FF5FEAE002AACBF1C
:105460009FED1A0A9FED1A0A68EE808A28EE008ADC
:1054700018EE900A18EE101AEEE60000DB0FC9BF16
:10548000DB0FC93FDB0F4940DB0F49C00000C9BF3C
:1054900022AAFDB90000C93F22AAFD390060ED3EF5
:1054A000C30ACE3700000000000049C022AA7DBA1E
:1054B0000000494022AA7D3A2DAD65BD8FB8D53D8B
:1054C0000FB511BE61C84C3EA8AAAABE0000804F0D
:1054D0000000802F10EE101A08B5444A6846B2EB5F
:1054E000410F28D94FF0E640B0EB410F94BF0020A8
:1054F0004FF0FF3000900098002861DB60EE000A5A
:1055000010F0010F45D010F0020FDFED391A9FEDBA
:10551000391A00EEE11ADFED381A40EE811A21EE59
:10552000A01AF0EE400A40EE010A08BFF1EE600A50
:10553000B0EE600A08BD314B21F0004293423CD9E5
:1055400011F0004FDFED2E0A20EE201ADFED2D0ABC
:1055500019BF31EE601A71EE200A31EE201A71EE99
:10556000600ABDEEE01A11EE100A9FED271A00F056
:10557000030000EEC10A9FED251A009000EEC10A5B
:105580009FED231A00EEC10A9FED221A00EEC10A18
:10559000B1E79FED211A9FED210A10F0020F00EEF6
:1055A000810A9FED1F1A00EE801AB7EE000A00EE86
:1055B000810A18BFB1EE400A08BD00F04BFF9AE720
:1055C00010EE100A4000B0F17F4F3CBFB7EE000A6A
:1055D00008BD07D14FF0010000F0F6FFBDE808401C
:1055E00000F028BFBDE8084000F01EBFB61F927E45
:1055F000336D4C39DA82083CA0AA2ABE490E4946CE
:1056000083F9223F0000004B0000C93F00A0FD3994
:105610000020A2331A61342CB93AB2BACA9F2A3D8B
:10562000DDFFFFBE000000002DE9F04D2DED040B65
:105630002DED0E8B96B0DDE92550279CDDF890A06E
:1056400025F0004624F00048BAF1000F14BF0121F4
:10565000002101EB4502FC4953184A1093422AD31A
:10566000002814BF0123002303EB44030B44F74934
:105670008B4220D358EA00019FEDF59B76D0DFF8EE
:10568000D8B35D4503D1BAF1000F05D188E0BAF176
:10569000000F08BF002100D0012101EB450111F5E9
:1056A000001F08D8002814BF0121002101EB44018C
:1056B00011F5001F0BD99DED261B9DED240B16B097
:1056C000BDEC0E8B04B0BDE8F04D00F073BE0027BA
:1056D000002DBCBFE149884521DAE1498845A8BFD2
:1056E00002271CDAC3451ADCDE4901EB28511429D4
:1056F00008DDC1F1340220FA02F101FA02F282421D
:105700000DD108E058B9C1F1140228FA02F101FAEA
:1057100002F2424503D101F00101C1F1020756EA4C
:105720000A0124D1002C22DA002D18BF022F01D04B
:10573000012F0AD0022000F047FF16B0BDEC0E8BFF
:1057400004B0BDE8F04D00F013BE022000F03CFFB5
:1057500000F00EFE51EC100B81F0004141EC100BFB
:1057600016B0BDEC0E8B04B0BDE8F08D18E09FEDD7
:10577000BEAB9FEDBF8B002871D1B848804522D1C8
:1057800005F1804010F5801008BFBAF1000F07D076
:10579000B3450ADC002CA8BF9DED260BE0DA0DE036
:1057A000B0EE490AF0EE690ADAE7002C06DA9DED60
:1057B000260B51EC100B81F000416FE0AE487844AD
:1057C00090ED000BCCE7D8454DD1002C48DA2EB136
:1057D00086423AD1BAF1000F42D126E0BAF1000F69
:1057E00013D0022000F0F0FE00F0FEFD8DED020B64
:1057F0009DED240B8DED000B10EE900A039961F3E3
:105800001E0003909DED020BAAE78DED02AB9DED0E
:10581000240B1AEE901A10EE900A8DED000B61F336
:105820001E0003909DED020B9AE78DED028B9DED1E
:10583000240B18EE901A10EE900A8DED000B61F318
:105840001E0003909DED020B8AE709DA9DED240B03
:1058500051EC190B53EC102BFAF7F0FD1EE020E091
:105860009DED240B7CE786421BDAB4F1804F0DD00E
:10587000A4F10050B0F1FF5013D1002D11DB9DEDCC
:10588000240B51EC100B01F0B1FC07E09DED240B53
:1058900053EC102B51EC100B00F0C2BC41EC100B80
:1058A0005EE79DED240B51EC100B01F015FABAF1F7
:1058B000000FCDE90E0142D19FED710B46B3A6F169
:1058C000E040B0F17F600CD05E4538D1002D00DAA9
:1058D000A7B3022F0CBF01204FF0FF30FAF71DFED7
:1058E000DCE7002D01DD002C0DDA002D01DD002CA0
:1058F0001FDB002D16DA002C14DB012F08BF9FEDF3
:10590000620B3FF42DAFB0EE4A0AF0EE6A0A27E7C9
:10591000022F18BF002D0CD0012F0AD1002DFFF649
:105920001FAF06E0002DB8BF002C08DA012F3FF4AE
:1059300017AFB0EE480AF0EE680A11E71BE001204D
:1059400000EBE57050EA070115D0791EB0EE498AE8
:10595000F0EE698A084308BF9FED4D8B4E48002545
:10596000804570DD4D494E48884514DDB0420DDB61
:10597000002C19DB2FE0012000F026FE16B0BDEC54
:105980000E8B04B0BDE8F04D00F01EBDB34502DC47
:10599000002C09DC1FE0864202DA002C1BDA03E04F
:1059A0005E452BDD002C16DD022000F00DFE00F020
:1059B0001BFD8DED020B53EC1A2B51EC180BFAF773
:1059C000CBFCCDE900010399019861F31E0003901F
:1059D0009DED020BC4E6022000F0F6FD00F014FD80
:1059E00010EE901A18EE900A8DED020B8DED008BE3
:1059F00061F31E0003909DED020BB1E69DED0E0BD1
:105A000053EC192B51EC100BFAF7A0FC9FED260B71
:105A1000CDE9080153EC102B9DED080B51EC100B58
:105A2000FAF79AFC9FED221B53EC112BFAF791FC2D
:105A30009DED081B53EC112BFAF78EFC9FED1E1BFE
:105A400053EC112B3CE08CE0FFFF1F00FFFF0F0029
:105A5000000000000000F03F0000F03F0000F07F79
:105A60000000404301FCFFFF000000000000F07F49
:105A70000000000000000000361C000000000000D4
:105A80000000000000000080000000000000F0FFA7
:105A9000000000000000F0BF0000E0410000F04303
:105AA000FFFFEF3F00000000000000000000D03FBB
:105AB000555555555555D53F000000000000E03FB5
:105AC000FAF747FC9DED080B41EC1A0B53EC102B39
:105AD00051EC100BFAF740FC53EC1A2BFAF73CFC94
