:020000040000FA
:10000000F018002059010000610100009D2400004B
:1000100065010000670100006901000000000000A8
:10002000000000000000000000000000C7400000C9
:100030006D01000000000000B93500003D410000E6
:1000400073010000730100007301000073010000E0
:1000500073010000730100007301000073010000D0
:1000600073010000730100007301000073010000C0
:1000700073010000730100007301000073010000B0
:10008000B91A0000451B0000011C0000A11C000063
:10009000651D000073010000730100007301000082
:1000A0007301000073010000730100007301000080
:1000B0007301000073010000730100007301000070
:1000C0007301000073010000730100007301000060
:1000D0007301000073010000730100007301000050
:1000E000730100000000000000000000000000009C
:1000F0000000000000000000000000000000000000
:1001000000000000000000000000000000000000EF
:1001100000000000000000000000000000000000DF
:1001200000000000000000000000000000000000CF
:1001300000000000000000000000000000000000BF
:1001400000000000DFF80CD000F01EFB0048004764
:10015000C16E0000F018002006488047064800479E
:10016000FEE7FEE7FEE7FEE7FEE7FEE7FEE7FEE767
:10017000FEE7FEE7954300004501000040EA010369
:100180009B0703D009E008C9121F08C0042AFAD24D
:1001900003E011F8013B00F8013B521EF9D2704711
:1001A000D2B201E000F8012B491EFBD270470022B9
:1001B000F6E710B513460A4604461946FFF7F0FF66
:1001C000204610BD2DE9FE4F804681EA0300C00F96
:1001D0000C46009021F0004123F00045B8EB0200EE
:1001E000A94105D24046214690461C460B46024690
:1001F00023F00040104347D0270DC7F30A00C3F394
:100200000A510290401A019040286BDAC3F31300A0
:1002100040F4801B0098924620B10023D2EB030AE1
:1002200063EB0B0B01985946C0F14002504600F0B9
:10023000B7F906460D4650465946019A00F0CFF9E7
:1002400010EB08006141002487EA115284EAE77349
:100250001A4340D0009A62B3019A012A4FEA07522A
:1002600015DC001B61EB02014FF0004202EA07526D
:10027000CDE90042001C41F5801132462B4600F0CA
:1002800006FA03B0BDE8F08F40462146F9E7001BAF
:1002900061EB0201001C41F5801300185B4120183E
:1002A000A2F5001747EB030140EAD570B6196D417E
:1002B00011E06D084FEA360645EAC0754FEA07526D
:1002C000001B61EB0201001C41F5801149084FEA57
:1002D00030000019514132462B4603B0BDE8F04FC3
:1002E00000F0C6B90098012240000023D0EB0202C2
:1002F00063EBE073009821464FEAE074B8EB00002E
:1003000061EB0401E9E783F000435BE781F0004122
:1003100058E72DE9FE4F81EA030404F0004421F080
:10032000004100944FF0000B23F0004350EA010419
:100330005ED052EA03045BD0C3F30A54C1F30A55FA
:100340002C44A4F2F3340194A0FB0254C1F3130132
:1003500041F48011C3F3130343F4801301FB0244FF
:1003600000FB034E840A970A44EA815447EA835704
:10037000A4FB076802958D0A05FB07854FEA932CBD
:1003800004FB0C542705029D4FEA065847EA16372E
:10039000B5EB08056EEB070C870E920E47EA811746
:1003A00042EA8312A7FB0201B6EB0B0164EB0004E7
:1003B0002B0D43EA0C335E1844EB1C50DA465146D1
:1003C000E7FB0201C5F313044FEA0B3343EA14536E
:1003D0004FEA0432019C43EA0603A4F10C040294A0
:1003E000009CCDE900B400F052F903B0BDE8F08FF5
:1003F00000200146F9E72DE9F04D81EA030404F0FD
:10040000004B21F0004514464FF0000A23F0004154
:1004100050EA050220D054EA01021DD0C5F30A5764
:100420000246C5F31303C1F31300C1F30A5640F4A7
:10043000801543F48013A7EB0608101BD64608F27C
:10044000FD3873EB050002D308F1010801E09218B2
:100450005B41B8F1000F03DA00200146BDE8F08DE2
:1004600000204FF48011064684460EE0171B73EB04
:10047000050705D3121B63EB050306434CEA010C89
:1004800049084FEA300092185B4150EA0107EDD16C
:1004900052EA030012D082EA040083EA050108430D
:1004A00005D0101BAB4106D20122002306E000223A
:1004B0004FF0004302E06FF0010253101AEB060008
:1004C0004CEB085110EB0A0041EB0B01BDE8F04D7D
:1004D00000F0CEB80EB5C10F80EAE0700844CA073C
:1004E000002140F233438DE80E000A460B4600F02F
:1004F000CEF803B000BD0EB540F2334102910021A9
:10050000CDE900110A460B4600F0C1F803B000BD6A
:10051000C1F30A5210B5C1F3130140F2FF3341F4A5
:1005200080119A4201DA002010BD40F233439A4212
:10053000A2F2334203DC524200F041F810BD904079
:1005400010BD00F0004230F000400AD0C10D01F5AE
:100550006071C0F3160042EA0151C208400711431E
:10056000704700200146704701F0004330B421F08D
:10057000004150EA010206D00A0DA2F56072C1F3F3
:100580001301002A02DC30BC00207047440F44EA0B
:10059000C104C100E01830BC00EBC25000F031B81B
:1005A000202A04DB203A00FA02F100207047914033
:1005B000C2F1200320FA03F3194390407047202A28
:1005C00004DB203A21FA02F00021704721FA02F3FD
:1005D000D040C2F120029140084319467047202ABA
:1005E00006DBCB17203A41FA02F043EAE07306E05B
:1005F00041FA02F3D040C2F120029140084319466B
:1006000070470029A8BF7047401C490008BF20F070
:100610000100704710B4B0FA80FC00FA0CF050EA08
:10062000010404BF10BC704749B1CCF1200421FA89
:1006300004F411FA0CF118BF012121430843A3EB84
:100640000C01CB1D4FEA00614FEA102042BF002091
:1006500010BC704700EBC35010440029A4BF10BC6D
:100660007047401C490008BF20F0010010BC7047D3
:1006700010B5141E73F1000408DA401C41F10001AA
:1006800092185B411A4301D120F0010010BD2DE901
:10069000F04D92469B4611B1B1FA81F202E0B0FAF8
:1006A00080F220329046FFF77BFF04460F4640EA77
:1006B0000A0041EA0B0153465A46084313D011463B
:1006C00053EA010019D0C8F140025046FFF777FF06
:1006D00005460E46504659464246FFF761FF08431D
:1006E00005D0012004E020463946BDE8F08D002009
:1006F000054346EAE0762C4337430A986305E40A4B
:10070000A0EB08000022FD0A44EA47540A3002D553
:1007100000200146E9E7010510196941DDE90845B6
:1007200000196941BDE8F04DA2E770B521F0004322
:1007300003430CD0C1F30A550024D5EB040564EB48
:100740000403D617AD1AB34102DB0020014670BD89
:10075000201841EB025170BD30B5041E71F1000448
:1007600004DB4FF00044404264EB0101141E73F1BE
:10077000000405DB1C464FF00043524263EB0403C8
:10078000994208BF904230BD064C074D06E0E06834
:1007900040F0010394E8070098471034AC42F6D3C8
:1007A000FFF7D4FCC8700000E87000002DE9F04DA0
:1007B00000231A461B1A8A4103DB00200146BDE8CC
:1007C000F08DC1F30A52C1F3130141F480154FF0CB
:1007D000000BD10702D100186D41521E00270446BC
:1007E00040F2FF11384601EB620A3E46804602465F
:1007F00000204FF48011FFF7E2FEC2197141BB18CF
:1008000046EB0100B4EB030C75EB000C04D3E41AC7
:1008100065EB000517460E46241908F101006D41ED
:1008200080463428E3DDF91946EB0600091BA84190
:1008300003D24FF0FF32134601E0002213461BEBB8
:10084000070046EB0A51BDE8F04DFFF711BF30B588
:100850008C1810F8012B12F00F0301D110F8013B96
:10086000120906D110F8012B03E010F8015B01F822
:10087000015B5B1EF9D101E001F8013B521EFBD187
:10088000A142E6D3002030BDF0EE400AE94890EDE9
:10089000001AE94880ED001AE64890ED021AE74890
:1008A00080ED001AE34890ED011AE54880ED001A4A
:1008B000E4488088A0F2DC5001EE100AB8EEC11ABC
:1008C000DFEDE11A21EE211AE04880ED001A90EDEB
:1008D000001ADFEDDF1AB4EEE11AF1EE10FA0CD2D5
:1008E00090ED001ADFEDDB1AB4EEE11AF1EE10FA2A
:1008F00003DD9FEDD91A80ED001AD44890ED001A5F
:10090000B5EEC01AF1EE10FA12DDD44890ED131ACC
:10091000CE48D0ED001A9FEDD22A01EE821ACF48C0
:10092000D0ED151A31EE211AC84880ED011A11E0F8
:10093000CA4890ED131AC548D0ED001A9FEDC92A98
:1009400001EE821AC548D0ED151A31EE211ABF48C2
:1009500080ED011A9FEDC41A20EE810ABB4890ED8C
:10096000011AD0ED021A31EE611AC04880ED001A6A
:1009700090ED001AB4EEC01AF1EE10FA02DD80ED2F
:10098000000A0DE0B94890ED001AF1EE401AB4EEFD
:10099000E11AF1EE10FA03D2B1EE401A80ED001A1E
:1009A000AA4890ED021AB148D0ED001A31EE211A92
:1009B000A64880ED021A90ED021AD0ED031A71EEEE
:1009C000611A90ED031A9FEDAA2A02EE211A80ED1A
:1009D000031AA8484079012849DBA7480078E8B302
:1009E0009A4890ED031AA54880ED001AA44890EDAE
:1009F000001AA248D0ED001A01EEA01AA04880ED1E
:100A0000001A8E4890ED001ADFED961A31EE211A89
:100A10009B48D0ED001AB4EEE11AF1EE10FA0AD2BA
:100A2000864890ED001ADFED8F1A31EE211A9448B6
:100A300080ED001A26E0814890ED001ADFED891A5A
:100A400031EE611A8E48D0ED001AB4EEE11AF1EEE3
:100A500010FA17DD794890ED001A00E007E0DFEDAD
:100A6000811A31EE611A864880ED001A0AE09FED86
:100A70007A1A824880ED001A704890ED001A80487A
:100A800080ED001A7E4890ED001ABDEEC11A11EEFD
:100A9000100A00B27B490880684890ED001ABDEE4C
:100AA000C11A11EE100A00B277490880744890ED1F
:100AB000001A6248D0ED001A31EE611A734880EDD9
:100AC000001A6E4890ED001A7048D0ED001AB7EE8B
:100AD000082A02EE211A5848D0ED001A584890ED25
:100AE000002ADFED6B2A42EE821A31EE611A694864
:100AF00080ED001A90ED001AF1EE041A21EE211A91
:100B0000654880ED001A90ED001A4D48D0ED001AAE
:100B100031EE611A614880ED001A90ED001ADFEDA8
:100B2000601A61EE211A5F4890ED001A01EEA01ADA
:100B300080ED001A90ED001ADFED5B1AB4EEE11AB9
:100B4000F1EE10FA02DD9FED581A0DE0554890EDD8
:100B5000001AB5EEC01AF1EE10FA02D29FED3E1A5D
:100B600002E0504890ED001A4E4880ED001A4A48C5
:100B700090ED001ADFED4D1A21EE211A4C4880ED60
:100B8000001A90ED001A4748D0ED001A31EE211AF4
:100B9000484880ED001A90ED001ADFED471AB4EED8
:100BA000E11AF1EE10FA02DD9FED431A0DE0414823
:100BB00090ED001AB5EEC01AF1EE10FA02D29FEDD8
:100BC000261A02E03B4890ED001A3A4880ED001AE0
:100BD00090ED001ABCEEC11A11EE100A15490882F8
:100BE0003648007800F0010070B99FED1B1A2D48BF
:100BF00080ED001A114890ED001A214880ED001A8E
:100C000000201D49087014E01A48407901280DDBC6
:100C10000E4890ED021ABDEEC11A11EE100A00B294
:100C2000002806DD01201449087002E00120124965
:100C300008707047940F0020A8000020B00000202A
:100C4000A00000200C0E00206F12833AA80F002095
:100C5000CDCCCC3DCDCCCCBD000000001C10002084
:100C600000004843000016430000FA4398000020AB
:100C7000CDCC4C3E8C100020CC000020A4000020E5
:100C8000AC000020BE010020BC010020B400002008
:100C9000CDCC4C3DB80000209C000020BC000020C2
:100CA0009A99193FC000002000001644CDCCCC3EDC
:100CB000C4000020C800002000007A448400002006
:100CC000FEB504460D460026002004E0215C3144B8
:100CD000CEB2411CC8B2691E8142F7DC601910F81F
:100CE000010CB04200D0FEBD2078AA2802D1607865
:100CF000AF2800D0F7E7A078052837D1E078E028C2
:100D000033D1607910280DD004DC012807D00228E7
:100D10000DD105E0112809D0E12808D101E007E054
:100D200006E005E0601D02F081FD01E000E000BF8B
:100D300000BFE07BA17B40EA0120617B227B41EA8E
:100D40000221E27AA37A42EA0322CDE9002102904D
:100D5000607A277A40EA0723E079A77940EA0722F8
:100D60006179AF2000F090F800E000BF00BFBAE763
:100D700010B50748007848B106480078801DC1B218
:100D80000548FFF79DFF00200149087010BD0000D5
:100D9000CB010020CA010020EA1000203549097863
:100DA00039B9AA2805D10121324A11703249087097
:100DB0005FE030490978012907D1AF2805D1022128
:100DC0002C4A11702C49487053E02A4909780229AD
:100DD00005D10321274A11702749887049E0254928
:100DE0000978032905D10421224A11702249C870CB
:100DF0003FE02049097804290AD105211D4A1170D4
:100E00001D4908711D49087000211D4A117030E00C
:100E100018490978052919D118490978002915DDDB
:100E200016490978491E154A117015490978144A5E
:100E30001278521C124B1A70491D0F4A50540F4918
:100E40000978B1B906210B4A117012E009490978F5
:100E500006290BD10021074A117009490978491D5B
:100E6000054A50540121074A117002E00021014A4D
:100E700011707047CD010020EA100020CC01002045
:100E8000CA010020CB0100202DE9FF4105460E4696
:100E90000024AA222146641C3748425405222146D8
:100EA000641C42542146641C4554E0222146641CC3
:100EB000425400222146641C42542146641C46547C
:100EC0009DF809202146641C42549DF808202046C4
:100ED000611CCCB228490A549DF80D202046611CA3
:100EE000CCB225490A549DF80C202046611CCCB296
:100EF00021490A549DF829202046611CCCB21E4984
:100F00000A549DF828202146601CC4B21A48425455
:100F10009DF82D202046611CCCB217490A549DF83B
:100F20002C202046611CCCB213490A549DF8312074
:100F30002046611CCCB210490A549DF8302020464E
:100F4000611CCCB20C490A54601F087100270020B4
:100F500005E00949095C3944CFB2411CC8B2A0423E
:100F6000F7DB2046611CCCB203490F5421460248EE
:100F700000F004F8BDE8FF81B810002070B5054608
:100F80000C4622460249034803F0D0FB70BD000026
:100F9000B81000204407002030B52DED088B8DB02F
:100FA00004460D46B0EE409AB6EE000A29EE000A5D
:100FB000F0EE408AFE4890ED010AD0ED030A20EEE3
:100FC000200AD0ED000A90ED021A00EEC10AF0EE00
:100FD000000A20EE200A8DED0A0A90ED000AD0EDFD
:100FE000010A20EE200AD0ED020A90ED031A00EE6D
:100FF000810AF0EE000A20EE200A8DED0B0A90ED3A
:10100000010A20EE000AD0ED020A90ED021A00EE6D
:10101000810AF7EE000AB0EE001A41EE400ACDED6B
:101020000C0AE448B0F9000000EE900AF8EEE00A7D
:1010300060EEA00ADF48B0F9020001EE100AF8EEF7
:10104000C11ADC48B0F9020001EE100AB8EEC11A6C
:1010500041EE810AD748B0F9040001EE100AF8EE1B
:10106000C11AD448B0F9040001EE100AB8EEC11A52
:1010700041EE810AB0EE600A02F03EFEB0EE408A18
:10108000B4F9000000EE100AB8EEC00A20EE080A1B
:101090008DED070AB4F9020000EE100AB8EEC00A9E
:1010A00020EE080A8DED080AB4F9040000EE100ADB
:1010B000B8EEC00A20EE080A8DED090A9DED080A77
:1010C000DDED0C0A20EE200ADDED090A9DED0B1A7C
:1010D00000EEC10A8DED010A9DED090ADDED0A0A57
:1010E00020EE200ADDED070A9DED0C1A00EEC10A84
:1010F0008DED020A9DED070ADDED0B0A20EE200AB8
:10110000DDED080A9DED0A1A00EEC10A8DED030A15
:10111000B4F9060000EE100AB8EEC00AA648D0EDF9
:10112000000A20EE200ADDED010AA44890ED001A25
:1011300001EE200A8DED040AB4F9080000EE100A51
:10114000B8EEC00A9C48D0ED000A20EE200ADDED82
:10115000020A9A4890ED001A01EE200A8DED050A68
:10116000B4F90A0000EE100AB8EEC00A9248D0EDB9
:10117000000A20EE200ADDED030A904890ED001AE7
:1011800001EE200A8DED060A894890ED010AB1EEC4
:10119000400ADDED040A20EE200AD0ED020A9DEDA2
:1011A000051A00EEC10AD0ED030A9DED061A00EE05
:1011B000C10A20EE280AF0EE409A90ED000ADDED1B
:1011C000040A20EE200AD0ED030A9DED051A00EE78
:1011D000C10AD0ED020A9DED061A00EE810A20EE4A
:1011E000280AB0EE40AA90ED030ADDED040A20EED5
:1011F000200AD0ED000A9DED051A00EE810AD0ED1F
:10120000010A9DED061A00EEC10A20EE280AF0EE52
:1012100040AA90ED020AB1EE400ADDED040A20EE8C
:10122000200AD0ED010A9DED051A00EE810AD0EDED
:10123000000A9DED061A00EE810A20EE280AB0EEA3
:1012400040BA90ED000A30EE290A80ED000A90EDD8
:10125000010A30EE0A0A80ED010A90ED020A30EE32
:101260002A0A80ED020A90ED030A30EE0B0A80EDA7
:10127000030AD0ED000A60EEA00A90ED011AD0ED4D
:10128000011A41EE210A90ED021AD0ED021A41EE48
:10129000210A90ED031AD0ED031A41EE210AB0EEB7
:1012A000600A02F029FDB0EE408A414890ED000A44
:1012B00020EE080A80ED000A90ED010A20EE080AEF
:1012C00080ED010A90ED020A20EE080A80ED020A84
:1012D00090ED030A20EE080A80ED030A90ED000A63
:1012E000F0EE000A20EE200AD0ED020A20EE200ADD
:1012F000D0ED010AB0EE001A60EE810A90ED031AFB
:1013000000EEC10A2E4880ED000A294890ED020A3D
:10131000F0EE000A20EE200AD0ED030A20EE200AAB
:10132000D0ED000AB0EE001A60EE810A90ED011ACD
:1013300000EE810A234880ED000A1D4890ED000A66
:1013400020EE000AD0ED010A90ED011A00EEC10A6C
:10135000D0ED020A90ED021A00EEC10AD0ED030AA8
:1013600090ED031A00EE810A174880ED000AB4F9E7
:101370000000404200EE100AB8EEC00A1048D0ED5E
:10138000000A20EE200AB4F9020000EE900AF8EEFE
:10139000E00A0C4890ED001A00EE810AB4F904004E
:1013A00000EE900AF8EEE00A074890ED001A0DE012
:1013B0004C00002084090020E06F00007000002035
:1013C0005C000020600000206400002000EE810A24
:1013D000134880ED000A90ED000ADFED120A30EEAE
:1013E000600ADFED110A20EE200A104880ED000AA5
:1013F00090ED000AD0ED010A70EE600A90ED010A4E
:101400009FED0B1A01EE200A80ED010A90ED010A12
:10141000084880ED010A0DB0BDEC088B30BD00001E
:1014200048000020000000457D3FF53E6800002098
:10143000CDCCCC3D940F002030B5034600200C4CA1
:10144000246824798C420ED10A4C2468641C094D0E
:101450002C602C4624689C4208DD00242C60044C3F
:101460002272012002E00024024D2C6030BD0000F9
:1014700074100020A001002010B5074B1B885B1ED4
:10148000054C238023461B8823B94FF49673238091
:10149000024B1A7210BD0000A4010020741000203D
:1014A00010B52DED068B1A22C349C448FEF766FE1F
:1014B000C1480078AA2860D1BF484078AF285CD1E5
:1014C0000320BF490871BC484079BB49097940EA0B
:1014D0000120BC490880B848C079B749897940EAF9
:1014E0000120B8494880B448407AB349097A40EAB3
:1014F0000120B4498880B048C07AAF49897A40EA6F
:101500000120B049C880AC48407BAB49097B40EA28
:101510000120AC490881A848C07BA749897B40EAE3
:101520000120A8494881A448407CA349097C40EA9D
:101530000120A4498881A048C07C9F49897C40EA59
:101540000120A049C8819C48407D9B49097D40EA13
:1015500001209C4908829848C07D9749897D40EACE
:101560000120984948829448407E9349097E40EA88
:1015700001209449888202F0E1FB904800884AF6F5
:10158000AA2188421FD18D48008B491088421AD168
:1015900003208B490871894800898A490880874857
:1015A000C088488085488088888084484089C88071
:1015B0008248C08908818148808948817F48408865
:1015C000488202F0BBFB804800780F287DD17E481E
:1015D00040787D49897840EA0120C0F30A007B49C0
:1015E000088079488078C0107749C97840EA41106E
:1015F000C0F30A00754948807348C0788011724969
:10160000097940EA81007049497940EA8120C0F3B4
:101610000A006E4988806C48407940106A4989798F
:1016200040EAC110C0F30A006849C8806648807962
:1016300000116549C97940EA0110C0F30A00634905
:1016400008816148C079C0115F49097A40EA4100C8
:101650005D49497A40EA4120C0F30A005B4948816C
:101660005948407A80105849897A40EA8110C0F37D
:101670000A00564988815448807A40115249C97AF3
:1016800040EAC1005149C8814F48007B4E49497B1F
:1016900040EA0120C0F30A004C4908824A48407BD6
:1016A000C0104949897B40EA4110C0F30A0047490C
:1016B00048824548807B80114349C97B40EA8100CC
:1016C0004149097C40EA812000E072E0C0F30A0051
:1016D0003E4988823C48007C40103B49497C40EAB6
:1016E000C110C0F30A003949C8823748407C001154
:1016F0003549897C40EA0110C0F30A003349088368
:101700003148807CC0113049C97C40EA41002E49F3
:10171000097D40EA4120C0F30A002C4948832A4849
:10172000007D80102849497D40EA8110C0F30A00FD
:10173000264988832448407D40112349897D40EA19
:10174000C1002249C88300241CE0204931F814005C
:10175000FEF7D1FE41EC1A0B9FED1D0B53EC102B45
:10176000FEF7D7FD41EC190B9FED1B0B53EC102B33
:10177000FEF728FD41EC180BFEF7CAFE134921F8CD
:101780001400641C102CE0DB104840880D49488090
:101790000E48008808800D48C088C8800B488088A3
:1017A00088800A48008908810848C089488102F079
:1017B000C5FABDEC068B10BDEC0D0020220E0020FA
:1017C000340000200C0E0020D8010020CC0D002099
:1017D0007F6ABC749318E83F0000000000A88740AF
:1017E00010B5044600201BE01849095C79B9184976
:1017F00031F8101042F2107291420CDA144931F8AB
:10180000101022781144124A22F8101003E000212F
:101810000F4A22F8101000210C4A1154411CC8B282
:101820000228E1DB0A480088B0F57A7F04DC08482A
:101830004088B0F57A7F05DD00200649087000F089
:10184000F7F802E001200349087010BD25000020D0
:10185000280000200809002070B504460D46002627
:10186000002004E0215C3144CEB2411CC8B2691EA4
:101870008142F7DC601910F8010CB04200D070BD55
:10188000E078512835D1607960B9A07900F0D0F8BE
:10189000E07940B224498871207A40B2C871607AF8
:1018A000487126E06079012823D1A07900F0C0F8C2
:1018B000E079000200B2217A08431B490881607A6E
:1018C000000200B2A17A084317494881E07A000279
:1018D00000B2217B084314498881607B000200B27A
:1018E000A17B08431049C881E07C487101200F4961
:1018F0000870E078522814D1607948B9E079A1796C
:1019000040EA01200849088201200849487008E09F
:101910006079012805D1E079A17940EA01200249E6
:10192000488200BFABE70000080900202500002026
:1019300010B504463A48007838B9AA2C05D10120E0
:10194000374908703748047068E035480078012846
:1019500007D1222C05D1022031490870314844704A
:101960005CE02F480078022805D103202C4908703C
:101970002C48847052E02A480078032805D10420BE
:10198000274908702748C47048E025480078042893
:101990000FD10520224908702248047122480470A2
:1019A0000078282801DD0020087000201F490870F9
:1019B00034E01B480078052819D11B48007800281E
:1019C00015DD19480078401E17490870174800783F
:1019D00016490978491C154A1170401D11490C54CB
:1019E00011480078D0B906200D49087016E00C485F
:1019F000007806280FD10020094908700B480078AC
:101A0000401D08490C5409480078801DC1B20548A2
:101A1000FFF722FF02E000200149087010BD00001E
:101A20002D000020500900202C0000202400002060
:101A300000F00101064A5170C0F3400204498A7067
:101A4000C0F38002CA70C0F3C0020A717047000080
:101A50000809002001B56846FFF7C2FE08BD00B5C1
:101A60000246F0EE402AB0EE620A084602F0F2FFAB
:101A700091ED030A82ED050AB0EE620A104602F00B
:101A8000E9FF00BD30B50446002505E04FF47A704B
:101A900000F005F8681C85B2A542F7D330BD30B51B
:101AA000044600F0C5FC054600BF00F0C1FC401B29
:101AB000A042FAD330BD000070B51F480068416CE9
:101AC0001E488847044621461C4802F020FD04F0C9
:101AD000010040B118480068016C18488847054665
:101AE0002846FFF725FF04F0020018B3144890F8C9
:101AF0004000F8B9124890F88D01401C104981F857
:101B00008D01084690F88D0191F88E11884207DB0F
:101B100001200B4981F84000002081F88D0109E087
:101B2000074A92F88D3102F28F12D15C044A106894
:101B300002F0F1FC70BD00006008000200100040DF
:101B4000F801002070B52B480068416C2A4888478E
:101B500004462146284802F0DAFC04F0010000B3F4
:101B600024480068016C24488847054621480068DD
:101B7000016C214888470146204890F8D12100F5A2
:101B8000E97081541D4890F8D101401CC1B21B4836
:101B900080F8D111012180F8C811002180F8D011FE
:101BA00000BF04F0020020B3144890F8040200BB08
:101BB000124890F85103401CC1B2104880F85113EC
:101BC00090F8511390F85203814207DB01210B4832
:101BD00080F80412002180F851130AE0074A92F8B5
:101BE000513302F25332D15C044AD2F8C40102F0FC
:101BF00092FC70BD6008000200140040F801002053
:101C000010B524480068416C2348884704462146A3
:101C1000214802F07CFC04F0010080B31D480068FC
:101C2000016C1D48884701461C4890F8952300F236
:101C300096308154194890F89503401CC1B217485A
:101C400080F89513012180F88C13002180F89413FB
:101C500090F896030F2802D0104880F895130F488B
:101C600090F8950319280BD10C4890F8951300F2C1
:101C7000963002F03DFC0021084880F8951308E0FA
:101C8000064890F89503192803DD0021034880F8E1
:101C9000951310BD6008000200180040F8010020F4
:101CA00070B52D480068416C2C4888470446214691
:101CB0002A4802F02CFC04F0010018B32648006802
:101CC000016C2648884705462846FFF767F82248F2
:101CD0000068016C214888470146214890F8592541
:101CE00000F25A5081541E4890F85905401CC1B268
:101CF0001B4880F85915012180F85015002180F803
:101D0000581500BF04F0020020B3154890F88C0568
:101D100000BB134890F8D906401CC1B2104880F8A7
:101D2000D91690F8D91690F8DA06814207DB01211E
:101D30000B4880F88C15002180F8D9160AE0084A73
:101D400092F8D93602F2DB62D15C054AD2F84C0532
:101D500002F0E1FB70BD000060080002001C0040C2
:101D6000F8010020704700000348007820F00100CF
:101D7000401C0149087070478400002010B52DED0B
:101D8000028BB0EE408A77480078012806D00B28F5
:101D90000DD01F2820D0FF287DD1CCE072480078DC
:101DA00000F0010010B10B206E490870CDE002F088
:101DB00007F99FED6E0A6E4880ED020A90ED020A67
:101DC0006C4880ED000A9FED690A6B4880ED560A69
:101DD0001F2064490870B8E0684890ED000A684820
:101DE000B0F9060000EE900AF8EEE00A654890EDC2
:101DF000001A10EE810A6148D0ED000AB6EE001A12
:101E000041EE000AC0ED000A90ED010A5C48B0F90D
:101E1000080000EE900AF8EEE00A5A4890ED001A29
:101E200010EE810A5548D0ED010AB6EE001A41EED7
:101E3000000AC0ED010A90ED020A5148B0F90A000B
:101E400000EE900AF8EEE00A4E4890ED001A10EE0F
:101E5000810A4A48D0ED020AB6EE001A41EE000AA5
:101E6000C0ED020A90ED000A434880ED160A43488F
:101E700090ED010A404880ED060A404890ED020AC4
:101E80003D4880ED260A3A4890ED010A3A4880ED37
:101E9000360A374800E054E090ED000A364880EDFD
:101EA000460A9FED320A80ED560A314890ED020A4B
:101EB0003048D0ED000A30EEC00A2F4880ED550AB8
:101EC00090ED550ADFED300AB4EEE00AF1EE10FABB
:101ED00008DB90ED550ADFED2D0A30EE600A80ED4B
:101EE000550A11E0244890ED550ADFED290AB4EEB9
:101EF000E00AF1EE10FA07D890ED550ADFED230A5B
:101F000030EE200A80ED550AB0EE480A2149A1F1D1
:101F1000C000FFF7A4FDB0EE480A1E49403916483C
:101F2000FFF79DFDB0EE480A1A494031A1F1C0000B
:101F3000FFF795FD09E002F043F801200949087018
:101F400003E0FF200749087000BF00BF0648007883
:101F500000F0010010B9FF2002490870BDEC028BAF
:101F600010BD00008C000020840000200000000054
:101F7000800A0020880000208C0A0020880F0020A2
:101F800084090020DC6F0000000034430000B443EB
:101F9000000034C38C0B002000201849087000BFDB
:101FA00028E0042817DA9FED160A164901EB800194
:101FB00081ED000A9FED120A12490C3101EB8001FC
:101FC00081ED000A9FED0E0A0E49183101EB8001E8
:101FD00081ED000A04E000210A4A2C3AA2F85010D0
:101FE00000220849183941F82020103941F82020F2
:101FF000411CC8B20428D4DB704700007A010020DD
:10200000000000004810002010B52B482B49086143
:1020100040304861B7EE000A0846006980ED000ACA
:10202000B7EE000A0846406980ED000AB3EE0E0ADA
:10203000234880ED850A9FED230A80ED950AB3EED3
:10204000040A0846406980ED0E0ABBEE040A084601
:10205000406980ED0F0AB3EE040A0846006980ED7E
:102060000E0ABBEE040A0846006980ED0F0A4FF421
:1020700048704881322088811348086013484860BE
:102080001348007820F004001149087011480068D6
:102090000221426901209047002009E09FED0E0ACD
:1020A00000EB40010D4A02EB810181ED010A401C69
:1020B0000328F3DB10BD00008C0C002074100020FE
:1020C0008C0A002000002042520700208C100020C3
:1020D000044C00402408000200000000F80F00201B
:1020E00010B52DED088B0446314890ED021A21EE13
:1020F000011AD0ED031A90ED032A01EE821AF7EED1
:10210000001AB0EE002A42EE411AF0EE610A90ED9C
:10211000011AF0EE001A21EE211AD0ED021A21EE7A
:10212000211AD0ED001AB0EE002A61EE821A90ED6D
:10213000032A01EE821AB0EE410A03F085FA1D4827
:10214000D0ED000A20EE200A84ED020A0068FEF7B6
:10215000F8F941EC190B18480068FEF7F2F941EC68
:102160001B0BB0EE4B0AF0EE6B0A03F0BDF8B0EEBD
:1021700040AAF0EE60AA53EC192B51EC1A0BFEF7B3
:10218000C8F841EC180BFEF7EFF960600B48D0ED92
:10219000000A0B4890ED000A03F056FA0548D0ED0E
:1021A000000A20EE200A84ED000ABDEC088B10BD69
:1021B0004C000020D46F00005C0000206400002070
:1021C0006000002000B587B0062301AA3B21D02083
:1021D00000F006FA06230DF10A024321D02000F098
:1021E000FFF9002059E0012101EB400101AA515CF7
:1021F00012F8102041EA02222A4931F81010511A2F
:1022000009B204AA22F8101004A931F9101000EE46
:10221000101AB8EEC00A244901EB8001D1ED000A82
:1022200070EE600A204901EB800191ED000A9FEDFC
:102230001F1A01EE200A1C4901EB800181ED000A02
:10224000194901EB800191ED000A1749183101EBA2
:102250008001D1ED000A70EE600A1349183101EBDC
:10226000800191ED000A9FED111A01EE200A0E493E
:10227000183101EB800181ED000A0B49183101EBA7
:10228000800191ED000ABDEEC00A10EE101A09B2ED
:10229000074A126822F81010401C0628A3DB07B07A
:1022A00000BD000090090020AC0900209A99993ED9
:1022B0004400002070B58AB0182104A8FDF777FF0C
:1022C00000240526002002900390009001905648BB
:1022D0000021C160016141614FF40061018200256C
:1022E00005E00220FFF7CEFBFFF76CFF6D1CB5F594
:1022F000967FF6DB69E04C48B0F90600002803DD64
:102300004948B0F9060003E04748B0F906004042EA
:10231000D8B94548B0F90800002803DD4248B0F9B3
:10232000080003E04048B0F90800404268B93E4860
:10233000B0F90A00002803DD3B48B0F90A0003E0C9
:102340003948B0F90A004042C0B3002415E03748CC
:102350000168E01C31F8100002A931F81410401A8D
:1023600000B22DF8140031480168E01C31F810006B
:1023700002A921F81400601C04B2032CE7DBBDF9AC
:102380000000002802DDBDF9000002E0BDF90000F8
:102390004042052819DABDF90200002802DDBDF926
:1023A000020002E0BDF90200404205280DDABDF945
:1023B0000400002803DDBDF9040003E005E0BDF9D9
:1023C00004004042052800DA00E094E700BF002442
:1023D00015E0FFF7F7FE642C0FDB00200BE004A9EB
:1023E00051F82010114A126832F91020114404AA41
:1023F00042F82010401C0628F1DB601C04B2B4F542
:10240000B27FE6DB00240AE004A850F824000012A2
:1024100001B205480C3020F81410601C04B2062CE0
:10242000F2DB0AB070BD00008409002044000020E7
:1024300010B500BF0D4A11684FF0E02292690C4BB5
:102440001B6803EB4304C4EBC313C2EBC302084B8A
:102450001B68B2FBF3F201EB4103C3EBC11302EBC8
:10246000C300024A12689142E4D110BD200000204E
:102470001C00002010B500F035FB00F085FB01F0DA
:10248000DFFD04F0FBFC00F073FEFFF7BDFD012053
:102490000149087010BD0000D10000207047000005
:1024A0000348007820F001000149087070470000DF
:1024B000024C00400349097841F00101014A1170C2
:1024C00070470000024C00407047704770477047EB
:1024D0007047704770477047704770477047704744
:1024E000704700000348007820F00100014908709F
:1024F00070470000034C00400349097841F0010196
:10250000014A117070470000034C00407047000002
:1025100010B52DED028BB0EE408A19480068B0F975
:10252000070000EE100AB8EEC00A164880ED860AD1
:1025300013480068B0F9050000EE100AB8EEC00AB2
:10254000104880ED960A0E49B0EE480A486902F03C
:1025500081FA0B49B0EE480A086902F07BFA084894
:10256000406990ED030A084880ED120A04480069AA
:1025700090ED030A044880ED110ABDEC028B10BDFA
:10258000741000208C0A00201C10002003480078E2
:1025900040F020000149087070470000454C0040A1
:1025A00070B504460D4600F059F9204600F010F9C8
:1025B00000F060F8284600F00BF900F05BF800F03E
:1025C0004DF9601C00F004F900F054F800F088F8B0
:1025D0000646002000F0B6F800F06EF9F0B270BDCB
:1025E000F0B507460E4614461D4600F037F938464A
:1025F00000F0EEF800F03EF8304600F0E9F800F0A8
:1026000039F800F02BF9781C00F0E2F800F032F80D
:1026100011E0012D06D100F063F82070002000F0D9
:1026200091F805E000F05CF82070012000F08AF8D5
:10263000641C681EC5B2002DEBD100F03DF90020EE
:10264000F0BD70B506460C46154600F007F9304659
:1026500000F0BEF800F00EF8204600F0B9F800F0E7
:1026600009F8284600F0B4F800F004F800F024F966
:1026700070BD000000B51848007820F01000164921
:102680000870881E007840F02000891E08700EE057
:1026900012480078401C1149087008460078052847
:1026A00005DD00F009F900200C49087006E00A4831
:1026B000001F007800F010000028E9D100BF064894
:1026C000801E007820F020000349891E0870012038
:1026D00004F037FB00BD0000454C0040180000200E
:1026E00010B500231648007820F010001449087037
:1026F00008241DE01248801E007840F02000104998
:10270000891E08705806030E881E007800F010001D
:1027100010B143F0010300E000BF0948801E0078BB
:1027200020F020000649891E0870012004F009FBF2
:10273000201EA4F10101CCB2DCD1184610BD00006E
:10274000454C004000B503462048007840F010009A
:102750001E490870881E007820F02000891E08702D
:10276000012004F0EEFA43B91848801E007840F0CA
:1027700010001649891E087007E01448801E007872
:1027800020F010001149891E0870012004F0D9FAC8
:102790000E48801E007840F020000C49891E087009
:1027A000012004F0CEFA0948801E007820F02000B5
:1027B0000649891E0870012004F0C3FA0348007816
:1027C00020F010000149087000BD0000454C004099
:1027D00010B503462048007840F010001E490870EC
:1027E00008242DE003F0800040B11B48801E0078D3
:1027F00040F010001849891E087007E01648801E36
:10280000007820F010001449891E08705B00012038
:1028100004F097FA1048801E007840F020000E491E
:10282000891E0870012004F08CFA0B48801E007885
:1028300020F020000849891E0870012004F081FA68
:10284000201EA4F10101CCB2CCD10348007820F0C5
:1028500010000149087010BD454C004000B51548F6
:10286000007840F0100013490870881E007840F08E
:102870001000891E08700846007840F0200008709B
:10288000012004F05EFA0B48801E007820F0100052
:102890000849891E0870012004F053FA0548801E7B
:1028A000007820F020000349891E0870012004F000
:1028B00048FA00BD454C004000B51448007840F08F
:1028C000100012490870881E007820F02000891E30
:1028D00008700846007820F010000870012004F00D
:1028E00030FA0A48801E007840F020000749891E0F
:1028F0000870012004F025FA0448801E007840F09A
:1029000010000249891E087000BD0000454C0040BF
:1029100010B54648007800B910BD4548007800B9A8
:10292000FAE7FFF785FD4349086000204049087039
:10293000FEF71EFA40480068401C3F490860084600
:1029400000680321B0FBF1F201FB1200F8B9FFF7B8
:102950006FFD3A490860FFF735FC9FED390A02F038
:10296000CBFAFFF765FD35494860084640680968BD
:10297000401A324988609FED320A32493248FEF7E8
:102980000BFB9FED2F0AFFF7F9F900F047F92A48F2
:10299000007800F0070010B92A48FFF7A1FB26488D
:1029A00000680B21B0FBF1F201FB120010B90B2003
:1029B000FFF750F8204800680A21B0FBF1F201FB54
:1029C000120028B900F0FAFD9FED200A01F09CFFEB
:1029D000194800681421B0FBF1F201FB120088B91C
:1029E00002F0ECF89FED190A02F086FB9FED170A42
:1029F00002F09EFA9FED150AFDF746FF9FED130AC0
:102A000000F010FC0C4800683221B0FBF1F201FB31
:102A1000120028B9322000F0FDFA322000F008FF41
:102A200000F0D8FD00F052FE00BF75E7D100002095
:102A3000D0000020CC0F0020E4000020E00F002098
:102A4000A69B443B800A0020840900200AD7A33CAF
:102A50001E48007800F0010020B901201C49C87010
:102A6000087104E002201A4908710020C870194852
:102A7000007A012823D118480068401C16490860D4
:102A800008460068322190FBF1F201FB1200E0B928
:102A90001248007880F0010010490870084600785C
:102AA00030B10F48007840F002000D4908700CE08A
:102AB0000B48007820F002000949087005E008483A
:102AC000007820F00200064908707047840000205A
:102AD00034000020741000203C0000204000002042
:102AE000034C004010B5FFF7FDFCFFF7D9FC0220B6
:102AF000164908710120C8701548007840F001009F
:102B000013490870481C007840F00100491C087007
:102B10000846007840F0020008700846007840F04F
:102B200004000870C81E007820F00100C91E08705B
:102B3000481C007820F00100491C0870881C0078AF
:102B400020F00400891C087010BD00003400002033
:102B5000044C004010B50B4909680868804701F033
:102B6000FBFA01F0B1FA00F009FA6420FEF78AFFDF
:102B7000FFF70CFD01F0E4FC0249383909680868E8
:102B8000804710BD6408000210B500247521D020D4
:102B9000FFF706FD0446682C03D000201E49087686
:102BA00010BDC820FEF76EFF80226B21D020FFF7FA
:102BB00048FDC820FEF766FF00221921D020FFF74C
:102BC00040FD0A20FEF75EFF03226B21D020FFF7B5
:102BD00038FD0A20FEF756FF04221A21D020FFF705
:102BE00030FD0A20FEF74EFF18221B21D020FFF7F0
:102BF00028FD0A20FEF746FF18221C21D020FFF7EF
:102C000020FD0A20FEF73EFFFFF754FB012002499A
:102C1000087600BFC4E700008409002010B5CC4846
:102C2000007800F0010010B9FF20CA490870C948B7
:102C30000078012806D0022818D01F2838D0FF2895
:102C40007ED16FE1C248007800F0010068B1C04851
:102C5000007820F00400BE4908700846007820F093
:102C6000020008700220BB49087000BFBA48007813
:102C700040B1B7480078C0F3800018B91F20B549AB
:102C800008700EE0B2480078C0F3800048B1B04848
:102C9000007820F00200801CAD4908701F20AD496B
:102CA00008706420AD49088048808880C88042E16F
:102CB0000024AB4890ED010ADFEDAA0AB4EEE00A69
:102CC000F1EE10FA1AD390ED010ADFEDA70AB4EE87
:102CD000E00AF1EE10FA11DC90ED000ADFEDA10A36
:102CE000B4EEE00AF1EE10FA08D390ED000ADFED41
:102CF0009E0AB4EEE00AF1EE10FA11DD9448007875
:102D000020F0010092490870FF209249087001F0FC
:102D10004FF901F055F991480021016041600AE145
:102D20009248407920B992488088A0F57A7004B220
:102D30008E484079012802DB8E48008A04B200E008
:102D4000F8E0002C01DC002005E040F25230844223
:102D500000DD00E0204681490880002C01DC0020D5
:102D600005E040F25230844200DD00E020467B491D
:102D70004880002C01DC002005E040F25230844203
:102D800000DD00E0204675498880002C01DC002031
:102D900005E040F25230844200DD00E020466F49F9
:102DA000C880754890ED130AD0ED030A30EE600A32
:102DB000D0ED230A70EE200A0846B0F9000000EEBC
:102DC000100AB8EEC00A30EE800ABDEEC00A10EE5E
:102DD000100A00B20880684890ED130AD0ED030A8B
:102DE00030EE200AD0ED230A70EE600A0846B0F9F2
:102DF000020000EE100AB8EEC00A30EE800ABDEE06
:102E0000C00A10EE100A00B248805B4890ED130A29
:102E1000B1EE400AD0ED030A30EE200AD0ED230ACD
:102E200070EE200A0846B0F9040000EE100AB8EE71
:102E3000C00A30EE800ABDEEC00A10EE100A00B2E1
:102E400088804D4890ED130AB1EE400AD0ED030A98
:102E500030EE600AD0ED230A70EE600A0846B0F941
:102E6000060000EE100AB8EEC00A30EE800ABDEE91
:102E7000C00A10EE100A00B2C8800846B0F900007F
:102E8000642801DC64200BE03448B0F90000B0F5A0
:102E90007A7F02DD4FF47A7002E03048B0F900002A
:102EA0002E4908800846B0F90200642801DC64203D
:102EB0000BE02A48B0F90200B0F57A7F02DD4FF44A
:102EC0007A7002E02548B0F902002449488008469B
:102ED000B0F90400642801DC64200BE01F48B0F95D
:102EE0000400B0F57A7F02DD4FF47A7002E01B48EF
:102EF000B0F90400194988800846B0F90600642832
:102F000001DC64200BE01548B0F90600B0F57A7FCB
:102F100002DD4FF47A7002E01048B0F906000F4964
:102F2000C88008E001200B4908700C4800210160AE
:102F3000416000E000BF00BF084CB4F90630B4F9AE
:102F40000420B4F90210B4F9000001F029FD10BD0D
:102F5000840000208D000020CC0000207C00002098
:102F6000800A0020000020C2000020428C100020B7
:102F70000C0E0020940F00208C0A002010B51D4874
:102F800000680122D021836902209847194800680F
:102F90000122402183690520984716483430006893
:102FA0001549C26A4FF0804090471248343000689B
:102FB0001149C26A114890470A200F49C8600D485C
:102FC00034300068C26A4FF08040904708200A49B8
:102FD000C860084834300068C26A4FF080409047AB
:102FE00004200549C860034834300068C26A0348B9
:102FF000904710BD24080002000000200008004097
:1030000003480078022802D1032001490870704764
:10301000740100204449097831B14449097861B903
:103020000121424A117008E04049097829B9404914
:10303000097811B102213D4A11703C49097881B9E2
:103040003C4991ED020ABDEEC00A3B4981ED000A00
:1030500000213A4A11809FED3A0A3A4981ED150A5A
:1030600052E03249097801293BD133490968C1F15D
:103070001E014FF47A725143642291FBF2F109B2BE
:10308000314A11801146B1F90010002901DC0021FC
:103090000BE02D49B1F9001041F28832914201DD77
:1030A000114602E02849B1F90010274A118023494E
:1030B0000988014409B2214A11809FED240A21495F
:1030C00081ED150A1146B1F900101F4AB2F900202E
:1030D000914219DD0021194A11800221134A117011
:1030E00012E012490978022905D19FED150A154908
:1030F00081ED150A08E00D490978032904D19FEDF7
:10310000140A104981ED150A1249097801F00101EC
:1031100049B99FED0B0A0B4981ED150A0021034ABD
:103120001170014A11707047750100207401002070
:10313000CC000020940F00207C01002082010020A0
:10314000000000001C100020800100200000C84288
:10315000000070C28400002010B5FEF705FE034891
:10316000007810B901200149087010BD75010020D8
:10317000B2EE000A254880ED300A9FED250A80ED69
:10318000000AB7EE000A80ED010A9FED220A80EDE9
:10319000020AB2EE040A80ED0C0ABAEE040A80EDCF
:1031A0000D0AB2EE000A80ED400A9FED190A80ED8B
:1031B000100AB7EE000A80ED110A9FED160A80EDA5
:1031C000120AB2EE040A80ED1C0ABAEE040A80ED7F
:1031D0001D0AB2EE000A80ED500AB0EE000A80ED42
:1031E000200A9FED0D0A80ED220A9FED0B0A80ED6B
:1031F0002E0A9FED090A80ED2F0A9FED080A80ED47
:103200001C0A9FED070A80ED1D0A70478C0A0020FA
:103210009A99993F5839B43C000000000000484298
:10322000000048C2D148D0ED110AD148408840F290
:10323000DC51081A01EE100AB8EEC11ADFEDCD1A02
:1032400041EE210ACC48C0ED000AC848D0ED120A70
:10325000C7480088081A01EE100AB8EEC11ADFED5F
:10326000C51A41EE210AC448C0ED010AD0ED000A9A
:10327000F5EEC00AF1EE10FA02DDD0ED000A04E02E
:10328000BD48D0ED000AF1EE600AB2EE041AF4EE89
:10329000C10AF1EE10FA04D2DFEDB80AB648C0ED6B
:1032A000000AB548D0ED010AF5EEC00AF1EE10FAB9
:1032B00002DDD0ED010A04E0AF48D0ED010AF1EEE5
:1032C000600AB2EE041AF4EEC10AF1EE10FA04D26A
:1032D000DFEDAA0AA848C0ED010AA948B0F9080024
:1032E00000EE900AF8EEE00AA648C0ED000AA448F5
:1032F000B0F90A0000EE900AF8EEE00AA148C0ED2D
:10330000010A9F48B0F90C0000EE900AF8EEE00ABE
:103310009D48C0ED000A9A48B0F90E0000EE900AF0
:10332000F8EEE00A9848C0ED010A9348D0ED000A93
:10333000944890ED001A70EEC10A9448C0ED000A5E
:103340008D48D0ED010A8F4890ED011A70EEC10A48
:103350008E48C0ED010A8B48D0ED000A8C4890EDF4
:10336000001A70EEC10AF1EE600A8A48C0ED000A48
:103370008448D0ED010A864890ED011A70EEC10A2A
:10338000F1EE600A8348C0ED010A7B48D0ED000AE7
:103390007D4890ED001A30EEC11A7F48D0ED000A4A
:1033A00041EE000AC0ED000A7348D0ED010A7648EC
:1033B00090ED011A30EEC11A7748D0ED010A41EEC6
:1033C000000AC0ED010AD0ED000A9FED741AF4EE78
:1033D000C10AF1EE10FA02D8DFED700A0FE06E4874
:1033E000D0ED000A9FED6E1AF4EEC10AF1EE10FA6C
:1033F00002DDDFED6B0A02E06748D0ED000A6648A7
:10340000C0ED000AD0ED010A9FED641AF4EEC10A86
:10341000F1EE10FA02D8DFED610A0FE05E48D0ED60
:10342000010A9FED5F1AF4EEC10AF1EE10FA02DD17
:10343000DFED5B0A02E05848D0ED010A5648C0EDC6
:10344000010A5048D0ED000A5148C0ED000A4D482D
:10345000D0ED010A4E48C0ED010A4C48D0ED000AFB
:103460009FED501A60EE810A4A4890ED001ADFED98
:10347000431A41EE210A484890ED001ADFED4A1A3E
:1034800041EE210A4948C0ED000A4048D0ED010A4A
:103490009FED441A60EE810A3E4890ED011ADFED7F
:1034A000371A41EE210A3C4890ED011ADFED3E1A31
:1034B00041EE210A3D48C0ED010AD0ED000ABBEE05
:1034C000041AF4EEC10AF1EE10FA02D8FBEE040A77
:1034D0000FE03648D0ED000AB3EE041AF4EEC10A4C
:1034E000F1EE10FA02DDF3EE040A02E02F48D0ED0F
:1034F000000A2E48C0ED000AD0ED010ABBEE041A06
:10350000F4EEC10AF1EE10FA02D8FBEE040A0FE065
:103510002648D0ED010AB3EE041AF4EEC10AF1EE2A
:1035200010FA02DDF3EE040A02E02048D0ED010AB1
:103530001E48C0ED010AD0ED000A1D48C0ED000A8A
:103540001A48D0ED010AF1EE600A1948C0ED010AEF
:103550001848007840B9DFED090A0F48C0ED000AAD
:10356000DFED060AC0ED010A704700001C100020C4
:103570000C0E00209A99993E2C01002000000000BA
:1035800008090020340100204C01002054010020D3
:103590003C010020440100205C0100200000C8C262
:1035A0000000C8429A99193E8FC2F53D640100207F
:1035B0006C010020CC0000207047000010B50448CA
:1035C0000068401C0249086001F080FC10BD00004A
:1035D000C401002010B53C480088401C3A490880CE
:1035E0000846007980B1012811D0022813D00328A1
:1035F00014D108460088642190FBF1F201FB12000F
:1036000008B9FEF783FF0AE0FEF780FF07E06420B9
:10361000FEF772FF03E0FEF765FF00E000BF00BFAA
:103620002948C07830B1012813D0022814D00328CB
:1036300015D103E06420FEF73DFF11E02248008829
:10364000642190FBF1F201FB120008B9FEF73CFF88
:1036500006E0FEF725FF03E0FEF736FF00E000BFBF
:1036600000BF19488078C0B101281FD0022802D0BD
:10367000032824D110E014480088642190FBF1F263
:1036800001FB120038B9FEF722FFFEF723FFFEF719
:1036900024FFFEF725FF13E012E0FEF717FFFEF709
:1036A00018FFFEF719FFFEF71AFF09E0FEF70DFFFE
:1036B000FEF70EFFFEF70FFFFEF710FF00E000BF62
:1036C00000BFFFF7C5F910BD3400002070B500241D
:1036D000A5E0C4EB0410C0EBC410534901EB80001B
:1036E0000079002859D0C4EB0410C0EBC41001EBE2
:1036F0008000007B401CC4EB0411C1EBC4114A4A9A
:1037000002EB81010873C4EB0410C0EBC410114636
:1037100001EB8000007B05283FDDC4EB0410C0EB0B
:10372000C41001EB8000407B322807DD3220C4EB5F
:103730000411C1EBC41102EB81014873C4EB041303
:10374000C3EBC413384D05EB8303597BC4EB04135F
:10375000C3EBC41305EB830303F10E00C4EB0413A6
:10376000C3EBC41305EB83039A6890470020C4EBB6
:103770000411C1EBC4112A4602EB81010873C4EBAA
:103780000411C1EBC41102EB81010871C4EB0411F7
:10379000C1EBC41102EB81014873C4EB0410C0EB10
:1037A000C410214901EB800090F84000B0B3C4EB95
:1037B0000413C3EBC4130D4605EB830303F5C77273
:1037C000C4EB0413C3EBC41305EB830303F28F11A3
:1037D000C4EB0413C3EBC41305EB830303F14100F3
:1037E00003F084FAD0B10020C4EB0411C1EBC41182
:1037F0002A4602EB810181F84000C4EB0412C2EBBF
:10380000C4122B4603EB820292F88F11C4EB041210
:10381000C2EBC41253F8220000F07DFE641C042C9D
:10382000FFF657AF70BD0000F801002070470000A0
:1038300010B50446FE4841788078814210D0FEF7EA
:10384000ABFBFC484079012806DBFB48007918B146
:103850000120F749087003E00020F549087048701E
:10386000F348407807286ED007DC07286CD2DFE8E1
:1038700000F06B11304D8BC4FE000A287ED004DCB2
:1038800008287CD009285FD19CE10B2878D0A0289B
:10389000F9D12CE0E6480078D0B1E848007840B98A
:1038A000E7480078A0B90120E5490870FFF754FC0B
:1038B0000EE0E2480078022803D10020DC4948707D
:1038C00006E0DE480078022802DD0020D849487072
:1038D000F6E1DA480078022802D1FFF791FB05E013
:1038E000D648007810B90020D1494870E8E1D548A1
:1038F000007800F0010040B1D248007820F00100CB
:10390000D04908700020CA494870D9E1CE480088E3
:1039100000EE100AB8EE400AC54880ED0D0ACA480C
:103920000088C8B1C94800884FF47A714843C64935
:103930000988002901DC002109E0C3490988C82958
:1039400003DDC82103E0CCE0B9E1BF49098890FB61
:10395000F1F1B748C16102E00021B548C161B44846
:10396000C06838B1B248C169C068814202D2002043
:10397000AF494870AE48C068011902E068E1E8E06C
:103980009CE1AB48C1609BE1AF480088404200EE3B
:10399000100AB8EEC00AA64880ED0D0AAA480088B1
:1039A000B8B1AA4800884FF47A714843A6490988FB
:1039B000002901DC002107E0A3490988962901DDDF
:1039C000962101E0A049098890FBF1F19848C16176
:1039D00002E000219648C1619548C06838B194481A
:1039E000C169C068814202D2002091494870904864
:1039F000C06801198E48C16062E19348008800EEFA
:103A0000100AB8EE400A8A4880ED0B0A8E480088FA
:103A1000B8B18E4800884FF47A7148438A490988C2
:103A2000002901DC002107E087490988C82901DD58
:103A3000C82101E08449098890FBF1F07C49486184
:103A400002E000207A4948617948406840B17848EE
:103A5000406977494968884202D200207449487019
:103A60007348406820447249486029E1FFE776487E
:103A70000088404200EE100AB8EEC00A6C4880EDA3
:103A80000B0A71480088B8B1704800884FF47A7109
:103A900048436D490988002901DC002107E06A4993
:103AA0000988C82901DDC82101E06749098890FB20
:103AB000F1F05F49486102E000205D4948615C48DF
:103AC000406840B15A48406959494968884202D221
:103AD000002057494870564840682044544948607F
:103AE000EEE05948008800EE100AB8EE400A50484F
:103AF00080ED0C0A54480088B8B1544800884FF44F
:103B00007A71484350490988002901DC002107E007
:103B10004D490988C82901DDC82101E04A490988C1
:103B200090FBF1F14248816102E00021404881614F
:103B30003F48806838B13E4881698068814202D23E
:103B400000203B4948703A48806801193848816034
:103B5000B6E03D480088404200EE100AB8EEC00AC8
:103B6000334880ED0C0A38480088B8B137480088DF
:103B70004FF47A71484334490988002901DC002157
:103B800007E031490988C82901DDC82101E02E4933
:103B9000098890FBF1F12648816102E00021244868
:103BA00081612348806838B12148816980688142F9
:103BB00002D200201E4948701D48806801191C4827
:103BC00081607DE02048008800B21949A1F85000CA
:103BD0001D480088B8B11D4800884FF47A714843E9
:103BE00019490988002901DC002107E016490988E4
:103BF000642901DD642101E01349098890FBF1F19A
:103C00000B48016202E0002109480162084800698E
:103C100038B10748016A0069814202D20020044994
:103C200048700348006901190148016148E000003B
:103C30001C1000208C1000200809002074010020B6
:103C40007A01002084000020780100207601002005
:103C500026480088404200B22549A1F85000234878
:103C60000088B8B1234800884FF47A7148431F494F
:103C70000988002901DC002107E01C490988642922
:103C800001DD642101E01949098890FBF1F1184830
:103C9000016202E00021164801621548006938B14E
:103CA0001348016A0069814202D20020104948701D
:103CB0000F48006901190E48016101E000E000BFF2
:103CC00000BF0B48407808B9FEF766F9084841780C
:103CD000817090ED0D0A80ED130A90ED0B0A80EDD6
:103CE000110A90ED0C0A80ED120A10BD7801002037
:103CF0001C10002076010020F0EE400AB7EE082AE2
:103D0000F0EE421AB6EE002A20EE822AB0EE421AF7
:103D1000B0EE600A10EE100A0749A1EB600000EE59
:103D2000100A61EE002AB7EE082A02EEC02A22EE3F
:103D3000002AB0EE420A7047DF59375F10B52DED0B
:103D4000028B9FED530AB0EE408A5248007980B151
:103D50005148407901280CDB504890ED000A50484A
:103D600080ED350A4D4890ED010A4D4880ED450A39
:103D70001EE04C48408840F2DC51081A00EE100A60
:103D8000B8EEC00ADFED420A20EE200A444880ED7A
:103D9000350A44480088A0F2DC5000EE100AB8EE64
:103DA000C00ADFED3B0A20EE200A3D4880ED450ABF
:103DB0003D48007800F00100B8B33A48808840F2EE
:103DC0001451884245DD3748C08840F2A4618842DA
:103DD00009DD364890ED000AF7EE000A30EE600A81
:103DE00080ED000A0EE02F48C08840F2145188424E
:103DF00008DA2E4890ED000AF7EE000A30EE200AAD
:103E000080ED000A264890ED550ADFED290AB4EE50
:103E1000E00AF1EE10FA09DB244890ED000ADFED2C
:103E2000250A30EE600A80ED000A12E01C4890ED91
:103E3000550ADFED210AB4EEE00AF1EE10FA08D2DD
:103E40001A4890ED000ADFED1B0A30EE200A80EDE3
:103E5000000A14480089B0F5966F03DA00200E4975
:103E6000487110E00F480089B0F5AF6F03DA012008
:103E70000949487107E00B480089B0F5C86F02DABC
:103E800002200549487100F019F8BDEC028B10BD05
:103E90000AD7233D080900208C1000206C01002067
:103EA0008C0A00200C0E00208400002088000020D6
:103EB000000034430000B443000034C310B5384858
:103EC0000078012802D002284DD128E035488088AA
:103ED00040F24C4188420BDA3248C08840F26C71A3
:103EE000884205DD30480078401C2F49087002E008
:103EF00000202D4908702C48007864280EDD002031
:103F0000294908700220264908702848007820F0C6
:103F10000100401C2549087000F052F823E02148B8
:103F2000808840F24C41884209DA1E48C0888842A5
:103F300005DA1D480078401C1B49087002E000208B
:103F4000194908701848007864280BDD00201649CC
:103F500008700120124908701448007820F0010010
:103F60001249087000BF00BF0E48408940F24C4122
:103F7000884213DB0B48408940F2DC5188420DDD5A
:103F800000200949087001200549087000F018F860
:103F90000648007820F001000449087010BD0000B8
:103FA000780000200C0E0020790000208400002002
:103FB000024890ED0C0A80ED0B0A7047340A00208D
:103FC00000201CE09FED120A124901EB801181EDE7
:103FD0000B0A9FED0F0A0F4901EB801181ED0A0AD0
:103FE0009FED0B0A0B4901EB801181ED030A9FED58
:103FF000080A084901EB801181ED090A401C0D28CF
:10400000E0DB9FED050A034880ED750A704700006C
:10401000000000008C0A00200000A04238B50024F7
:104020000020009001236A460D21EC20FEF7D8FA0B
:104030009DF80000102800D10124204638BD000062
:1040400010B500201A4948720872AFF20B000860E0
:104050001848486018A116480A3001F005F9FFF722
:10406000DDFF134908720846007AB0B1012048729A
:1040700010200877084602F047FB402280210C48B8
:1040800002F0B8FC082320228021094802F071FDCB
:1040900007220321064802F062FD00F08FFD084868
:1040A00090ED0C0A80ED0B0A0148407A10BD00002B
:1040B000DC090020C540000053504C3036000000A1
:1040C000340A00207047704730B517480068174918
:1040D000B0FBF1F016490860134800684FF47A729B
:1040E000B0FBF2F1481EB0F1807F00D31BE0481E08
:1040F0004FF0E022506150170722002804DB5307DD
:104100001C0E0C4B1C5406E053071D0E0A4B00F00E
:104110000F04241F1D5500BF00204FF0E0229061C6
:104120000720106100BF30BDD001002040420F00C9
:104130001C00002000E400E018ED00E004480068E6
:10414000401C0349086001200249087070470000C4
:1041500020000020D0000020F0B5824E3668C6F363
:1041600002450126AE40F0B27E4E366806F00704E6
:10417000062C39D2DFE804F003394051B7BD7A4E3E
:1041800036785EB346F65A16764F083F3E60754E57
:104190004836366846F00106724F48373E600126C1
:1041A000704F083F3E60704E367886B16F4E36785D
:1041B00036B14FF4FA3696FBF0F66D4F3E6013E0E1
:1041C0004FF4FA4696FBF0F6694F3E600CE04FF470
:1041D000004696FBF0F6664F3E6005E04FF4004661
:1041E00096FBF0F6624F3E60B9E042F2107696FB25
:1041F000F0F65F4F3E60B2E05C4E367836B14FF479
:10420000FA3696FBF0F65A4F3E6005E04FF4FA4658
:1042100096FBF0F6564F3E60A1E0524E361F3668D0
:10422000C6F309024F4E361F366806F4E026B6F58F
:10423000403F15D007DC6EB1B6F5803F0CD0B6F527
:10424000003F13D10AE0B6F5802F0BD0B6F5A02FB2
:104250000CD109E0474909E0474907E0474905E033
:10426000474903E0474901E0474900BF00BF12B991
:104270003F4E316036E002F4805616B142F470468B
:1042800032B2424E367826B1414E96ED210AF36E97
:1042900003E03F4E96ED190AF36C00EE902AF8EE1B
:1042A000E00A20EE201AC3F5407600EE906AF8EEA0
:1042B000E01AF7EE000A40EE210AF2EE001A60EE74
:1042C000A11AC1EE210AB7EE001A31EE601A00EE13
:1042D000901AF8EE600AC0EE811AFCEEE10A244E54
:1042E000C6ED000A3BE0274E96FBF0F6204F3E60FD
:1042F00035E01D4E361D36785EB346F65A16194F18
:10430000083F3E60174E4836366846F00206154FA5
:1043100048373E600126134F083F3E60124E361D5F
:10432000367886B1114E367836B14FF4FA3696FBB0
:10433000F0F60F4F3E6011E04FF4FA4696FBF0F6B0
:104340000B4F3E600AE0104E96FBF0F6084F3E60C1
:1043500004E00D4E96FBF0F6054F3E6000BF00BF37
:10436000F0BD000008040140008920423C86204244
:10437000D001002060E31600C0C62D00808D5B00D8
:10438000001BB70000366E01006CDC02D8802042B2
:10439000001020002E48006840F470002C4908608E
:1043A0004FF4B5402B49088080202B49486100BF5D
:1043B0002A48406800F480700028F9D1284827492D
:1043C000086000BF2548406800F480700028F9D1DB
:1043D00000BF2248406800F480700028F9D12048CE
:1043E000001D1E49086000BF1C48406800F4807032
:1043F0000028F9D11B48006920F4704040F40050B7
:10440000184908610846406920F4704040F40050A3
:10441000486146F65A10144908604FF4A020091D5F
:104420000860081D006820F00710C01C091D086006
:1044300000200D4908600B48006940F03000094930
:1044400008610846406940F030004861704700004C
:1044500088ED00E00C480040003004E0000001401E
:1044600001005A69001001400004014030B50124E8
:10447000C4EB5104E3B200F1120424F8132030BD60
:1044800070B504460D46204600F0D7FE70BD000012
:10449000027812B1012A24D111E0134A92ED800A68
:1044A000DFED120A30EE200A82ED800A92ED900ACA
:1044B000DFED0E0A30EE200A82ED900A12E00A4A81
:1044C00092ED800ADFED090A30EE600A82ED800A83
:1044D00092ED900ADFED050A30EE600A82ED900A57
:1044E00000E000BF00BF70478C0A0020CDCCCC3D5F
:1044F00070B504460D462A4621460348FBF73EFEAA
:10450000FCF7CEFF70BD0000D80100207047828B01
:104510008A438283704700F11A024FF0844303EB11
:10452000421212794AB900BF00F11C024FF08443D5
:1045300003EB42121279002AF6D0C18170470000C5
:1045400000B5A5B024226E491CA8FBF717FE242253
:104550006B49243113A8FBF711FE24226849483126
:104560000AA8FBF70BFE242265496C3101A8FBF772
:1045700005FE6448006801220C21C36903209847A6
:1045800060483C3000681CA902685F4890475D485D
:104590003C30006881685C4888475A483C30006875
:1045A0000121026B5848904756483C300068022170
:1045B000026B554890475348006801220C21C3699B
:1045C000104698474F483C30006813A902684F488E
:1045D00090474C483C30006881684C4888474948BF
:1045E0003C3000680121026B4848904745483C3008
:1045F00000680221026B454890474248006801224A
:10460000C021C369092098473E483C30006801A991
:1046100002683F4890473B483C30006881683C480E
:10462000884738483C3000680121026B3848904781
:1046300034483C3000680221026B354890473148CD
:10464000006801220C21C369022098472D483C30A4
:1046500000680AA902682F4890472A483C30006841
:1046600081682C48884727483C3000680121026B4C
:104670002848904723483C3000680221026B2548B7
:1046800090472048083000688169202088471D48ED
:10469000083000688169212088471A48083000687E
:1046A00081692220884717480830006881692320E3
:1046B000884719481949886019491848C0F8CC1129
:1046C0001849C0F890131849C0F85415012013492F
:1046D00081F840000121114880F8041280F8C813C5
:1046E00080F88C1509480D4908600A48C1F8C401D2
:1046F0000548C1F888030648C1F84C0525B000BD3F
:10470000406F000024080002001800400010004024
:10471000001C00400014004081440000F80100200B
:1047200091440000F14400000D4500002DE9F041E6
:1047300005460E461746002417E0C4EB0410C0EBF4
:10474000C4100C4901EB8000A8420DD1C4EB041148
:10475000C1EBC411074A02EB810101F141003A4665
:10476000314602F0F5FA02E0641C042CE5DB00BFE0
:10477000BDE8F081F801002010B52DED028BB0EE00
:10478000408A4948007A172879D2DFE800F00C788F
:104790000D134A4B4C4D4E4F50511832311965781C
:1047A00078666C7677006BE001220021084600F005
:1047B0009DF865E0B0EE480AFDF7AAFE60E000BF94
:1047C000B0EE480AFDF7A4FE3748007A0C2805D160
:1047D000BBEE040A354880ED110A08E03248007A41
:1047E0000F2804D1B3EE040A304880ED110A47E0E7
:1047F00000BFB0EE480AFDF78BFE2B48007A0E286A
:1048000005D1B3EE040A294880ED120A08E02648D3
:10481000007A0D2804D1BBEE040A244880ED120A68
:104820002EE000BF00BF00BF00BF00BF00BF00BF41
:104830001D4800680079022804D1B0EE480AFDF74F
:1048400067FE08E09FED1A0A184880ED120A9FEDF6
:10485000180A80ED110A13E012E002220021084636
:1048600000F044F80CE01348406A007820F00100A2
:104870001049496A087003E001E001E000E000BF70
:1048800000BF0D480068401C0B4908600868C1174C
:1048900000EB91718910A0EB810109B900F054F887
:1048A000BDEC028B10BD0000741000201C10002015
:1048B000000000008C1000209C01002010B508486A
:1048C000007800F00200074908700846007830B907
:1048D0000120054908724FF49670FDF7D3F810BD1A
:1048E000004C0040AC01002074100020034B1880E5
:1048F000034B1980034B5A7070470000760100206B
:10490000780100201C10002010B52DED028BB0EEB8
:10491000408AFFF7D3FF0B480068B0F90500642810
:1049200005DC08480068B0F90700642802DDBDEC2A
:10493000028B10BD00F0CAF9B0EE480AFFF71CFF69
:1049400000BFF4E7741000201FB500200090019014
:104950000290124C039094ED850ABDEEC00A10EE51
:10496000104A23B20D4C94ED950ABDEEC00A10EE2C
:10497000104A22B2094C94ED960ABDEEC00A10EE20
:10498000104A21B2054C94ED860ABDEEC00A10EE25
:10499000104A20B200F064FA1FBD00008C0A00200B
:1049A0002DE9F04104460D4617461E46002C01DC59
:1049B000002006E0B4F57A7F02DB40F2E73000E049
:1049C00020460446002D01DC002006E0B5F57A7F84
:1049D00002DB40F2E73000E028460546002F01DC0C
:1049E000002006E0B7F57A7F02DB40F2E73000E016
:1049F00038460746002E01DC002006E0B6F57A7F37
:104A000002DB40F2E73000E03046064604F57A70FB
:104A100004B205F57A7005B207F57A7007B206F5AB
:104A20007A7006B22A4604210807FFF71FFD3246B6
:104A300004210748FFF71AFD22460821C806FFF7A0
:104A400015FD3A460A214807FFF710FDBDE8F08141
:104A50000008004090ED051AD0ED061A31EE611AFB
:104A6000D0ED091A31EE211A80ED041A90ED071AE3
:104A7000B5EEC01AF1EE10FA22D090ED081AB5EE9C
:104A8000C01AF1EE10FA1BD090ED041AD0ED081AFE
:104A9000B4EEE11AF1EE10FA02D890ED081A0DE02A
:104AA00090ED041AD0ED071AB4EEE11AF1EE10FA07
:104AB00002DD90ED071A01E090ED041A80ED041A72
:104AC00090ED0B1AD0ED041A01EE801A80ED0B1A4E
:104AD00090ED0C1AB5EEC01AF1EE10FA22D090ED5E
:104AE0000D1AB5EEC01AF1EE10FA1BD090ED0B1AAC
:104AF000D0ED0D1AB4EEE11AF1EE10FA02D890EDF5
:104B00000D1A0DE090ED0B1AD0ED0C1AB4EEE11A6F
:104B1000F1EE10FA02DD90ED0C1A01E090ED0B1AA7
:104B200080ED0B1A90ED061AD0ED0A1A31EE611ADB
:104B3000B1EE411AC1EE000A90ED001AD0ED041A50
:104B400021EE211AD0ED011A90ED0B2A01EE821A06
:104B5000D0ED021A01EEA01A80ED031A90ED0E1AA4
:104B6000B5EEC01AF1EE10FA22D090ED0F1AB5EEA4
:104B7000C01AF1EE10FA1BD090ED031AD0ED0F1A07
:104B8000B4EEE11AF1EE10FA02D890ED0F1A0DE032
:104B900090ED031AD0ED0E1AB4EEE11AF1EE10FA10
:104BA00002DD90ED0E1A01E090ED031A80ED031A7C
:104BB00090ED061A80ED0A1A7047000010B52DED31
:104BC000108B86B09FED320BB0EE40FAF0EE60FA3B
:104BD0009FED310B8DED040B9FED310B8DED020B35
:104BE0009FED310B8DED000B9FED310BB0EE408A48
:104BF000F0EE608A304801F07BFEDFED300A80EE97
:104C0000201A11EE104A2046FBF79BFC41EC190BD1
:104C100053EC182B51EC190BFBF7EDFB41EC1E0B81
:104C20009FED271BB0EE4E0AF0EE6E0A00F034FE48
:104C3000B0EE40DAF0EE60DA9FED150B53EC102B7E
:104C400051EC1D0BFBF765FB41EC1C0B9FED100BB2
:104C500053EC102BFBF757FB41EC1B0B9FED0E0B9E
:104C600053EC102BFBF7C7FB41EC1A0BFBF77CFC5A
:104C700015490863084690ED0C0AD0ED0B0A30EE9A
:104C8000600A80ED0D0A06B0BDEC108B10BD00006F
:104C9000666666666602724039B4C876BE9F7ABFA1
:104CA00005A3923A019D2340CDCCCCCCCCF07140F1
:104CB000CDCCCCCCCC545940DC09002000007A4447
:104CC000739B82A07A5AC83F340A002000B55F481F
:104CD000007A172870D2DFE800F00C0D1B228D73CC
:104CE000804A9BB594B551297A879C9DB59EAAAE02
:104CF000B400A8E055484089401E00B2534948819D
:104D00000846B0F90A00002801DC022008729AE087
:104D100008224FF496710A20FCF7AEFB93E00D22B7
:104D20004FF496710A20FCF7A7FB8CE04848007806
:104D300010B1012818D10BE0072206210320FCF74F
:104D40007BFB20B142480078401C414908700CE0D0
:104D50000A2206210320FCF76FFB20B13C480078B3
:104D6000401C3B49087000E000BF00BF6BE00C2214
:104D70004FF496710A20FCF77FFB64E03548007819
:104D800010B1012819D10BE00E2208210320FCF7F5
:104D900053FB20B12F480078401C2E4908700DE0CD
:104DA000082206210320FCF747FB20B129480078A0
:104DB000401C2849087001E044E000BF00BF42E009
:104DC00013224FF496710A20FCF756FB3BE00622B3
:104DD00007210320FCF730FB35E00F224FF49671DA
:104DE0000A20FCF749FB2EE0042205210320FCF7F2
:104DF00023FB28E00D224FF496710A20FCF73CFBC0
:104E000021E00C224FF496710A20FCF735FB1AE0E2
:104E100019E018E017E0104801680068401E0E4ACB
:104E20001060002902DA1420084908720BE0002003
:104E30000649087207E009480068401C07490860F5
:104E400001E000E000BF00BF00BD000074100020C2
:104E50009001002091010020940100209801002081
:104E60002DE9F04F8DB004460D4616461F46DDE98C
:104E700018ABDDE91689ADF82440ADF82650ADF841
:104E80002860ADF82A70ADF82C80ADF82E90ADF802
:104E900030A0ADF832B003208DF80400FC208DF86E
:104EA00005008DF8160003208DF81700102209A9BF
:104EB0000DF10600FBF762F9142201A9024801F086
:104EC00047FF0DB0BDE8F08FFD03002000B58FB0A7
:104ED0000020019001AA02A9054801F007FF28B1AE
:104EE0009DF8042002A90348FFF720FC0FB000BD85
:104EF0003C0E0020F80100200A4890ED011A0A48F3
:104F0000D0ED000A41EE000AC0ED000A0748D0EDDE
:104F1000000A054890ED001A41EE000A0348C0ED72
:104F2000000A7047940F00200C010020100100209F
:104F300000B5F0EE400A564890ED000A9FED551A74
:104F4000B4EEC10AF1EE10FA02DD9FED520A0FE055
:104F50004F4890ED000A9FED501AB4EEC10AF1EEF1
:104F600010FA02D29FED4C0A02E0494890ED000A87
:104F7000474880ED000A494890ED000A444890ED0A
:104F8000001A01EE200A454880ED000A444890EDE1
:104F9000000A424890ED001A4248D0ED001A31EE66
:104FA000611A20EE010A404880ED000A3C4890ED6D
:104FB000010A374890ED001A3C48D0ED001A31EE56
:104FC000611A20EE010A3A4880ED000A344890ED5B
:104FD000020A374890ED001A20EE011A354890ED8C
:104FE000000A01EE200A80ED000A90ED000A9FED14
:104FF000321AB4EEC10AF1EE10FA02DD9FED2E0A6C
:105000000FE02C4890ED000A9FED2C1AB4EEC10A77
:10501000F1EE10FA02D29FED290A02E0254890ED48
:10502000000A244880ED000A1E4890ED000A1E4840
:1050300090ED001A01EE200A1A4880ED000A1D4882
:1050400090ED000A1A4890ED001A30EE011A174848
:1050500090ED000A01EE200A80ED000A90ED000AB2
:10506000174880ED000A0F4890ED000A144880EDC3
:10507000020A1448007820B11348007800F00100BB
:1050800020B900F023F801200E49087000BD00008F
:10509000040100200000FA430000FAC308010020C8
:1050A000EC0F002010010020180100200C0100204E
:1050B000140100201C01002000004842000048C2EA
:1050C000940F0020E8000020840000209FED060AD5
:1050D000064880ED000A064880ED000A9FED020AAE
:1050E000044880ED000A7047000000000401002021
:1050F00008010020100100203C48D0ED0C0A9FED73
:105100003C1A60EE810AFDEEE00A3A48C0ED000A62
:105110003948007848B138480078401E3649087050
:10512000344800683549086006E032480068334971
:105130000968401A324908603248008A304948609C
:105140000846006830490968401A00EE900AF8EEF7
:10515000E00A80EE801AFDEEC10A2C48C0ED000A7C
:105160002748406828494968401A00EE900AF8EE3E
:10517000E00A80EE801AFDEEC10A2448C0ED010A63
:105180001F480068204908601D48406848601D4865
:105190004078A8B11D48D0ED010AF8EEE00A1C489D
:1051A000C0ED000ADFED1B0A1B48C0ED000AF6EE59
:1051B000000AC0ED010ADFED190AC0ED020A14E091
:1051C0001248D0ED000AF8EEE00A1148C0ED000ADE
:1051D000DFED130A1048C0ED000AF6EE000AC0ED3C
:1051E000010ADFED0E0AC0ED020A7047340A002002
:1051F0000000C842FC000020200100200001002027
:10520000F40000200809002024010020EC00002008
:1052100004010020CDCCCC3FEC0F0020CDCC4C3E87
:10522000CDCC4C3F70B504460D4616463246294655
:10523000204601F0C3FD70BD704770B505462C4691
:10524000E07880B92079022805D16278A11D204636
:10525000FFF7F2FF07E02079012804D16278A11D51
:105260002046FFF7DFFF70BD0FB4084610B5064AB1
:1052700002A901F033FA044602A9002001F03FFA26
:10528000204610BC5DF814FBFF66000003B40198D3
:105290004100009850EAC12018BF04204A0D18BFF1
:1052A00040F0010040F2FF72B2EB515F08BF40F0E6
:1052B0000200012808BF052002B070474100080223
:1052C00018BF04200A0E18BF40F001004FF07F42C3
:1052D00032EA010108BF40F00200012808BF0520A2
:1052E000704700000000000070B5C1482DED020BB2
:1052F0002DED0E8B82B0119D25F000449FEDBEDB9D
:105300009FEDBFEB84423EDBA4F140511098A1F128
:105310007F6108430FD0BC48844202DC28D110983A
:1053200030B39DED100B02B0BDEC0E8B02B0BDE8AA
:10533000704001F06DB99DED100B53EC1D2B51EC3D
:10534000100BFAF7E6FF9DED100B41EC180B53EC38
:105350001E2B51EC100BFAF7DCFF53EC182BFAF76D
:1053600031FF41EC100B02B0BDEC0E8B02B070BDF2
:10537000012001F0ADF902B0BDEC0E8B02B0BDE82A
:10538000704001F059B9A1489FEDA18B844256DAD3
:105390009DED100BB4F1795F0ADA51EC100BFFF7B9
:1053A00075FF042808BF01F067F99DED100BDAE7DF
:1053B00053EC102B51EC100BFAF7ABFF41EC190B2F
:1053C00095480621B0EE490AF0EE690A784401F0EA
:1053D0008BF853EC192B51EC100BFAF79AFF41ECB8
:1053E0001A0B8E48B0EE490AF0EE690A042178449F
:1053F00001F07AF853EC192B51EC100BFAF789FFF6
:1054000053EC182BFAF7DEFE41EC100B51EC1A0BA3
:1054100053EC102BFAF7EFFFCDE900019DED000BE7
:1054200053EC102B9DED100B51EC100BFAF771FFA4
:105430009DED101B53EC112BFAF7C4FED2E09DED4D
:10544000100B51EC100B01F0ADFC53EC182BFAF7DC
:105450005DFF9FED730BCDE9000153EC102B9DED2B
:10546000000B51EC100BFAF754FF41EC190B6E488E
:105470000621B0EE490AF0EE690A784401F034F8EA
:1054800053EC192B51EC100BFAF743FF41EC1B0BBB
:105490006648B0EE490AF0EE690A0421784401F04A
:1054A00023F853EC192B51EC100BFAF732FF53ECA5
:1054B000182BFAF787FE41EC1C0B51EC190B01F08D
:1054C00007FD41EC180B5A489FED5BABA04222DC74
:1054D00053EC1C2B51EC1B0BFAF78DFFCDE90001AF
:1054E0009DED000B51EC180B53EC102BFAF711FF4C
:1054F00053EC182BFAF766FE53EC1A2BFAF709FF58
:1055000053EC1D2BFAF7FFFE53EC1E2BFAF7FEFEB1
:1055100041EC100B5FE08DED008B002000909DEDC5
:10552000000B51EC180B53EC102BFAF74BFE9DEDD2
:10553000000B41EC1E0B53EC102B51EC100BFAF747
:10554000E8FE53EC192BFAF7E1FE53EC1E2BFAF7A9
:1055500052FF41EC190B53EC1C2B51EC1B0BFAF7CF
:105560004AFF41EC1B0B53EC1A2B51EC190BFAF7C9
:10557000D0FE53EC1D2BFAF7C9FE41EC190B53EC8E
:105580001A2B51EC180BFAF7C4FE53EC1B2BFAF74D
:10559000C0FE53EC192BFAF7B6FE9DED000B41EC63
:1055A000180B53EC1A2B51EC100BFAF7B2FE9FEDCF
:1055B000249B53EC192BFAF7A9FE41EC100B51EC8C
:1055C000180B53EC102BFAF79EFE53EC192BFAF73D
:1055D0009DFE41EC100B002D3FF7C5AE51EC100BBA
:1055E00081F0004141EC100BBDE60000000000001E
:1055F0000000F03F00000000075C143326A6913C39
:10560000182D4454FB21F93F0000F07F0000E03FDB
:10561000000000000000F03F181C0000261C0000E5
:10562000000000000000E03F6A1B0000781B000043
:105630003333EF3F00000000000000000000004096
:10564000182D4454FB21E93F10EE100A10B510EE5E
:10565000901A4FF0684202EB40032DED028BB3F13C
:10566000654F3CBF02EB4102B2F1654F7CD200BFF7
:10567000C0F3C753C1F3C7529A1A1B2A09DD10F0B1
:10568000004F14BF9FED6E0A9FED6E0ABDEC028BBA
:1056900010BD12F11A0F1BDA11F0004F09D010F0F3
:1056A000004F0CBF9FED680A9FED680ABDEC028BAE
:1056B00010BD80EE208A18EE100AFFF7FFFD0428C7
:1056C00008BF00F0EDFFB0EE480ABDEC028B10BD44
:1056D0004200B2EB410F37D910F0004F19BFDFED98
:1056E0005C1A9FED5C1ADFED5C1A9FED5C1AB0EE60
:1056F000602A0A46F1EE400A80F00041B0EE420A0C
:1057000010460A1A5200B2F1807F34D2484010F09D
:10571000004FDFED532A9FED533A1DBFBEEE002A26
:1057200071EEE21A31EE431AB6EE002A04BF71EEB2
:10573000A21A31EE031AF0EE402A42EE602A40EE41
:10574000020A82EEA02A18E011F0004F04BF9FED7C
:10575000461AF0EE411AD4D010F0004F1CBFDFED16
:10576000431A9FED431A00E026E004BFDFED411A23
:105770009FED411AC5E780EE202A22EE020ADFEDF6
:105780003F0ADFED3F2ABDEC028B40EE202ADFED21
:105790003D0A40EE220ADFED3C2A40EE202ADFEDF2
:1057A0003B0A40EE220A22EE000A00EE201A31EEF9
:1057B000020A30EE210A10BD4FF07F42B2EB400FDB
:1057C00028BFB2EB410F05D2BDEC028BBDE8104003
:1057D00000F062BF40EA01035B0008BF41F0FF41F7
:1057E0000BD0B2EB400F08BFB2EB410F08D120F055
:1057F000804000EE100A21F0804100EE901A37E759
:10580000B2EB400F12BF5FEA410240F0FF4001F0EF
:1058100000413FF42DAF4A0092EA40033FF528AF24
:10582000002AACBF9FED1A1A9FED1A1A20EE010A4A
:1058300060EE810A10EE100A10EE901A18E70000D0
:10584000DB0FC9BFDB0FC93FDB0F4940DB0F49C08E
:105850000000C9BF22AAFDB90000C93F22AAFD3934
:105860000060ED3EC30ACE3700000000000049C0D2
:1058700022AA7DBA0000494022AA7D3A2DAD65BD1D
:105880008FB8D53D0FB511BE61C84C3EA8AAAABEBF
:105890000000804F0000802F2DE9F04D2DED040B0E
:1058A0002DED0E8B96B0DDE92550279CDDF890A0FC
:1058B00025F0004624F00048BAF1000F14BF012182
:1058C000002101EB4502FC4953184A1093422AD3A8
:1058D000002814BF0123002303EB44030B44F749C2
:1058E0008B4220D358EA00019FEDF59B76D0DFF87C
:1058F000D8B35D4503D1BAF1000F05D188E0BAF104
:10590000000F08BF002100D0012101EB450111F576
:10591000001F08D8002814BF0121002101EB440119
:1059200011F5001F0BD99DED261B9DED240B16B024
:10593000BDEC0E8B04B0BDE8F04D00F073BE002747
:10594000002DBCBFE149884521DAE1498845A8BF5F
:1059500002271CDAC3451ADCDE4901EB2851142961
:1059600008DDC1F1340220FA02F101FA02F28242AA
:105970000DD108E058B9C1F1140228FA02F101FA78
:1059800002F2424503D101F00101C1F1020756EADA
:105990000A0124D1002C22DA002D18BF022F01D0D9
:1059A000012F0AD0022000F093FE16B0BDEC0E8B42
:1059B00004B0BDE8F04D00F013BE022000F088FEF8
:1059C00000F00EFE51EC100B81F0004141EC100B89
:1059D00016B0BDEC0E8B04B0BDE8F08D18E09FED65
:1059E000BEAB9FEDBF8B002871D1B848804522D156
:1059F00005F1804010F5801008BFBAF1000F07D004
:105A0000B3450ADC002CA8BF9DED260BE0DA0DE0C3
:105A1000B0EE490AF0EE690ADAE7002C06DA9DEDED
:105A2000260B51EC100B81F000416FE0AE4878443A
:105A300090ED000BCCE7D8454DD1002C48DA2EB1C3
:105A400086423AD1BAF1000F42D126E0BAF1000FF6
:105A500013D0022000F03CFE00F0FEFD8DED020BA5
:105A60009DED240B8DED000B10EE900A039961F370
:105A70001E0003909DED020BAAE78DED02AB9DED9C
:105A8000240B1AEE901A10EE900A8DED000B61F3C4
:105A90001E0003909DED020B9AE78DED028B9DEDAC
:105AA000240B18EE901A10EE900A8DED000B61F3A6
:105AB0001E0003909DED020B8AE709DA9DED240B91
:105AC00051EC190B53EC102BFAF795FC1EE020E07B
:105AD0009DED240B7CE786421BDAB4F1804F0DD09C
